:020000040800F2
:1000000000300020992F0008E92F0008E92F000890
:1000100000000000000000000000000000000000E0
:10002000000000000000000000000000E92F0008B0
:100030000000000000000000E92F0008971E0008E3
:10004000E92F000800000000E92F0008E92F000850
:10005000E92F0008591F0008691F0008791F0008D0
:1000600000000000E92F0008E92F0008E92F000830
:10007000E92F0008411C0008591C0008000000007E
:10008000611C00080000000000000000791C00084E
:1000900000000000911C0008A91C0008E92F0008BE
:1000A00000000000E92F00080000000001290008FE
:1000B00019290008000000000000000000000000F6
:1000C0000023C25C0133002AFBD1581E7047000098
:1000D00002B4714649084900095C49008E4402BCDB
:1000E0007047C046002243088B4274D303098B42F9
:1000F0005FD3030A8B4244D3030B8B4228D3030CF8
:100100008B420DD3FF22090212BA030C8B4202D399
:100110001212090265D0030B8B4219D300E0090AC1
:10012000C30B8B4201D3CB03C01A5241830B8B42CA
:1001300001D38B03C01A5241430B8B4201D34B03B3
:10014000C01A5241030B8B4201D30B03C01A524118
:10015000C30A8B4201D3CB02C01A5241830A8B429D
:1001600001D38B02C01A5241430A8B4201D34B0286
:10017000C01A5241030A8B4201D30B02C01A5241EA
:10018000CDD2C3098B4201D3CB01C01A524183099E
:100190008B4201D38B01C01A524143098B4201D3D8
:1001A0004B01C01A524103098B4201D30B01C01A03
:1001B0005241C3088B4201D3CB00C01A524183087D
:1001C0008B4201D38B00C01A524143088B4201D3AA
:1001D0004B00C01A5241411A00D20146524110460A
:1001E0007047FFE701B5002000F006F802BDC046E9
:1001F0000029F7D076E770477047C04610B5064C27
:100200002378002B07D1054B002B02D0044800E0D7
:1002100000BF0123237010BD9C00002000000000DF
:10022000C8340008044B10B5002B03D00349044820
:1002300000E000BF10BDC04600000000A00000208C
:10024000C8340008E12110B5094C062220004902FB
:1002500002F0C6FD2000074902F050FE0121C8202F
:1002600002F0C4FE044BC820196802F01BFF10BD49
:1002700018020020E034000800000020FA2010B529
:10028000800002F04FFF054CC820216802F00AFFF1
:100290002368013B5A1E9341236010BD00000020DB
:1002A0007047000070B5104B05001978002901D186
:1002B000012070BDFA208000FFF714FF0B4C0100F5
:1002C0002068FFF70FFF00F081F8041EF0D1032D26
:1002D000EED8020001202900404200F031F8044B22
:1002E00020001D60E5E7C046040000204400002017
:1002F000080000208023084A5B00116810B50B43FA
:1003000003201360FFF7CEFF041E03D1FFF7C8FFE1
:10031000200010BD0124FBE700200240034A044BEB
:1003200011681B785B1813607047C046B800002046
:1003300004000020014B18687047C046B800002038
:1003400010B5FF2403220B0021000240D20091408F
:100350009B012340C943934000280ADBC0240B4A79
:10036000800880008018A40002590A4013430351FA
:1003700010BD0F2210400838054A80088000801800
:10038000C26911401943C161F2E7C04600E100E0D3
:1003900000ED00E0002805DB1F2318401E3B8340D2
:1003A000014A13607047C04600E100E0002809DB05
:1003B0001F2318401E3B8340034AD367BFF34F8F70
:1003C000BFF36F8F7047C04604E100E08022431EF8
:1003D0005204012093420DD2C021074A07485360BE
:1003E000036A09061B021B0A0B4303620020072352
:1003F000906013607047C04610E000E000ED00E040
:10040000002807DB1F23C02218401E3B83400249FF
:1004100052008B507047C04600E100E0704710B5B5
:10042000FFF7FCFF10BD704710B5041E01D101207D
:1004300010BD437FDAB2002B02D10277FFF7F3FF42
:10044000022363772379002B1CD118212368124AD9
:100450005A619A688A439A6062792368002A19D19E
:10046000013A60211A619A6800208A4361690A434F
:1004700080219A609A688A43A1690A439A6001239D
:100480006377D5E72000E268A16800F007F800284C
:10049000E2D0CCE72269E4E7B71DC10430B50125FD
:1004A00004001E232800294202D130BD013B21D384
:1004B0000800D8402842F9D0102A17D0102A07D8AF
:1004C000002A0AD00120082AEFD10F2BEDD804E032
:1004D0000120182AE9D1062BE7D8206841611821AC
:1004E00083688B43134383600020DEE70120072BE2
:1004F000F3D9DAE70120102AE0D1D6E7F0B50028D9
:1005000008D0841DE37F411D022B05D00423C36363
:100510000023CB770120F0BD0E250268466C1368DE
:10052000AB4313603368104D2B40336001231668D2
:100530009E431660026C1B331A401B3B93400B4ECC
:1005400077683B437360C26C836C5A60036D002B09
:1005500005D01A682A401A60436D826D5A600123E3
:100560000020E377C877D6E7FFFEFFFF00000240D8
:10057000F8B50123411DCB77841DE27F022A03D009
:100580000422C2631800F8BD0E2602681568B54340
:1005900015601568466C9D4315603268114D2A4000
:1005A0003260026C104E15001C221540AB4077687B
:1005B0003B437360C26C836C5A60036D002B06D0A2
:1005C0001A68084D2A401A60436D826D5A600123F3
:1005D000E3770023CB77836B002B00D09847002074
:1005E000D1E7C046FFFEFFFF0000024070B5084D96
:1005F0000400EB68184202D0E86001F0A5FC2B690A
:10060000234203D020002C6101F0A2FC70BDC04643
:100610000018024038220F4B9968114205D11B681F
:100620000D489B045B0FD84070479968114008291A
:100630000BD099681140202909D09B6800201340F5
:10064000182BF1D1FA20C001EEE70348ECE7802037
:100650000002E9E700100240006CDC0210B5FFF771
:10066000D9FF064B064A9B681B051B0F9B009B5836
:100670001F221340D840034B186010BD00100240E9
:100680006C3500084400002010B5FFF7E7FF054B6C
:10069000054A9B685B045B0F9B009B581F2213401D
:1006A000D84010BD001002404C350008704770471C
:1006B0000222036870B5DD681E69040016420DD081
:1006C00015420BD0053A1A61043202779B699B07E9
:1006D00000D17CE001F055FB0023237704231E4268
:1006E00012D01D4210D00522236852421A610732EF
:1006F00022779A69C0239B0020001A4200D16CE047
:1007000001F03FFB0023237708231E420FD01D4238
:100710000DD00922236852421A610D322277DB691B
:1007200020009B075FD001F02CFB002323771023D0
:100730001E4211D01D420FD01122236852421A616D
:1007400019322277DA69C0239B0020001A4250D068
:1007500001F017FB0023237701231E4208D01D421E
:1007600006D002222368524220001A6101F0DEFA0C
:1007700082239B011E4207D02B0605D52368204A01
:1007800020001A6100F0ADF8F30507D52B0605D55A
:1007900023681C4A20001A6100F0A4F840231E427E
:1007A00008D01D4206D041222368524220001A611F
:1007B000FFF77DFF20231E4208D01D4206D02122D4
:1007C0002368524220001A6100F08AF870BD01F0DF
:1007D000D4FA2000FFF76AFF7EE701F0CEFA20008E
:1007E000FFF764FF8EE701F0C8FA2000FFF75EFF15
:1007F0009BE701F0C2FA2000FFF758FFAAE7C046C6
:100800007FDFFFFFFFFEFFFF10B51A4C0368A04219
:100810000AD0194A904207D0184A904209D1184A82
:100820001A40CB6813430AE0702293434A6813438B
:10083000F5E7144A9042F2D0134A9042EFD080225A
:1008400093434A6913438A68C2620A688262A0427B
:1008500005D00C4A904202D00B4A904201D10A695D
:100860000263042201680A430260012242610360BC
:1008700010BDC046002C0140000400400020004094
:10088000FFFCFFFF004401400048014070B5040038
:100890000120002C23D025003D352B78DAB2002B27
:1008A00005D123003C3320001A7001F0DDFD022346
:1008B0002B702068211DFFF7A7FF220001230020D5
:1008C0004832137047340A3A137053709370D370E0
:1008D000137153719371D371137223702B7070BDA8
:1008E000704770477047000030B5EFF31084012265
:1008F00082F310880168134D0B682B400B6084F362
:100900001088EFF3108182F3108802680E4C936810
:100910002340936081F31088C36E012B0AD1EFF35B
:10092000108183F31088102402681368A3431360B6
:1009300081F31088030020228C331A600023C366E1
:10094000436730BDDFFEFFFFFEFFFFEF30B5EFF383
:100950001084012282F31088802501680B68AB4364
:100960000B6084F31088EFF3108182F3108840232A
:10097000026810680343136081F3108830BD0300E0
:1009800088331B6810B5212B06D10200563213881C
:10099000002B02D1FFF7DAFF10BD036D01681C7850
:1009A00001338C6203651388013B9BB21380F3E72C
:1009B000030088331B6810B5212B06D10100563186
:1009C0000B88002B02D1FFF7C1FF10BD026D046838
:1009D00013880232DB05DB0DA36202650B88013B45
:1009E0009BB20B80F1E70000030088331B6870B5F1
:1009F000212B21D10300010080246A331B8856314A
:100A0000002B19D00A88002A17D1EFF31084013285
:100A100082F310880168114D8B682B408B6084F342
:100A20001088EFF3108182F3108840230268106869
:100A30000343136081F3108870BD0568EA692242A0
:100A400008D0026D16780132AE6202650A88013A5A
:100A500092B20A80013B9BB2D2E7C046FFFF7FFF04
:100A6000030088331B6870B5212B21D103000100DE
:100A700080246A331B885631002B19D00A88002A3B
:100A800017D1EFF31084013282F310880168124D00
:100A90008B682B408B6084F31088EFF3108182F316
:100AA00010884023026810680343136081F31088A4
:100AB00070BD0668F26922420AD0056D2A880235A7
:100AC000D205D20DB26205650A88013A92B20A8057
:100AD000013B9BB2D0E7C046FFFF7FFF704700009D
:100AE00030B5050088352C6803000220202C38D151
:100AF0000138002935D0002A33D080209C6840017D
:100B0000844205D11869002802D10130014228D160
:100B10001965190054310A804A801A000021903268
:100B20001160212280212A608022586E920549019D
:100B3000904217D1154A8C4204D11969144A0029F0
:100B400000D0124A9A67EFF31081012282F31088D5
:100B50001A68802390681B040343936081F3108814
:100B6000002030BD0B4A8C4204D119690A4A002981
:100B700000D0084A9A67EFF31081012282F31088AF
:100B80001A688023106803431360E7E7E909000847
:100B9000610A00087F090008B1090008806A002284
:100BA000030010B55E331A8001F088FE10BD704757
:100BB000F7B50168C34DCB6904000A6888682B4209
:100BC00010D120252B4200D19BE0802676051540D0
:100BD0000640354300D194E0636F2000002B00D025
:100BE00085E085E0B84D05400095B84D009E154064
:100BF000354300D185E0250001269035334205D0EC
:100C0000D70503D50E622F683E432E60022633427D
:100C10000CD0C7070AD527000E6290373E680197AF
:100C2000B446042667463E43019F3E600426334295
:100C30000CD0C7070AD527000E6290373E6801978F
:100C4000B446022667463E43019F3E600826B446EE
:100C5000334209D02027009E1740374304D0664610
:100C60000E622F683E432E6080263601334206D046
:100C7000570104D50E6220212E683143296029686E
:100C8000002935D020210B420AD080235B0511407A
:100C90000340194304D0636F002B01D02000984714
:100CA00022682B684027966828223E401340200087
:100CB0001E4322D0FFF718FE23689B683B4218D0E2
:100CC000EFF31081012383F31088250004CD93688E
:100CD000BB43936081F31088E86F002809D07C4BF8
:100CE0008363FFF745FC002802D0E86F836B9847C9
:100CF000F7BD200001F0E2FDFAE701F0DFFD2E6014
:100D0000F6E7E56E012D00D0A4E01026334200D1B5
:100D1000A0E0324200D19DE023000E6289685C337E
:100D200008001A884023184019425ED0201DC16F68
:100D30000F68796889B200294DD091424BD22200C8
:100D40005E32118020218C463A6811400091614644
:100D50000A4232D1EFF3108785F3108821685D4E87
:100D60000A6832400A6087F31088EFF3108785F332
:100D7000108821688A68AA438A6087F31088EFF395
:100D8000108785F3108821688A689A438A6087F300
:100D90001088230062468C331A60009BE366EFF3F1
:100DA000108185F3108822680F351368AB431360F8
:100DB00081F31088C06FFFF7A1FB02232200236795
:100DC00023005C325E331B881188C91A89B2200067
:100DD000FFF7EDFE8CE7914200D089E73B689B0668
:100DE00000D485E702232367F1E721005E310B88F9
:100DF00009889BB2002900D17AE7D21A91B2002962
:100E000000D175E7EFF3108785F310882268324E22
:100E100013683340136087F31088EFF3108785F36E
:100E2000108822682D4E93683340936087F31088B2
:100E3000230020228C331A60E0666067EFF3108095
:100E400085F31088102522681368AB43136080F384
:100E50001088C7E780256D032B4206D0460204D5D3
:100E600020000D6201F066FD42E780210B4207D0B1
:100E700080252D0411402840014301D0A36FACE62A
:100E800040210B4216D00A4214D0EFF31080012308
:100E900083F31088226813688B43136080F31088F3
:100EA0002300202288331A6000232000A36701F06A
:100EB000FEFC1DE7190213D5510011D5200000F0EA
:100EC00021FE15E70F0800000100001020010004BA
:100ED0009D0B0008FFFEFFFFDFFEFFFFFEFFFFEFA1
:100EE000DB0100D404E7002A00DB01E7200000F06A
:100EF00008FEFDE601008C310A68F8B50368222A75
:100F00005AD1040060345B6A2488826D23401370D8
:100F10000200836D5E32013383651388013B9BB20F
:100F2000138013889CB2002B42D1EFF3108601335B
:100F300083F310880568234F2A683A402A6086F3B5
:100F40001088EFF3108683F310880568AA689A4327
:100F5000AA6086F3108820220A600268046752683B
:100F6000446712020AD5EFF3108183F310880268F8
:100F7000154C13682340136081F31088C36E012B56
:100F800017D10022C266EFF3108483F31088016842
:100F90000F330A689A430A6084F310880268D169A3
:100FA000194200D0136203005C331988FFF7FFFD7C
:100FB000F8BD01F075FCFBE7082299690A439A61C4
:100FC000F6E7C046DFFEFFFFFFFFFFFB02008C32AB
:100FD0001168F8B50368222959D104006034596AB0
:100FE0002488836D214019800100023383655E31BE
:100FF0000B88013B9BB20B800B889CB2002B42D12B
:10100000EFF31086013383F310880568224F2968B7
:101010003940296086F31088EFF3108683F3108837
:101020000568A9689943A96086F31088202111609A
:10103000026804675268446712020AD5EFF3108110
:1010400083F310880268154C13682340136081F302
:101050001088C36E012B17D10022C266EFF31084F3
:1010600083F3108801680F330A689A430A6084F397
:1010700010880268D169194200D0136203005C3302
:101080001988FFF794FDF8BD01F00AFCFBE7082280
:1010900099690A439A61F6E7DFFEFFFFFFFFFFFB56
:1010A000F0B50600036885B0DD691A688C360392D6
:1010B0009A68040001923268222A00D0C6E0030038
:1010C00068331B88002B00D196E0030060331B8837
:1010D000029320231D4200D18EE0236802995B6AAF
:1010E000A26D0B4013702200A36D5E320133A36525
:1010F0001388013B9BB2138007232268D5691D42E8
:101100002FD0063B1D4208D00399C90505D5210003
:1011100013629031086803430B6002231D4209D01B
:101120000199C90706D52100136290310868DB18C0
:1011300003430B6004231D4209D00199C90706D55A
:101140001362220090321168023B0B4313602700A8
:1011500090373B68002B04D0200001F0AFFB002348
:101160003B6023005E331B8899B2002BB1D1EFF3B3
:101170001085013383F310882068374F02683A40A6
:10118000026085F31088EFF3108583F310882068E0
:10119000324F82683A40826085F3108820223260A4
:1011A000226821675268616712020AD5EFF3108145
:1011B00083F3108822682A4813680340136081F380
:1011C0001088E36E012B3DD10022E266EFF3108020
:1011D00083F3108821680F330A689A430A6080F30A
:1011E00010882268D169194200D0136223005C3351
:1011F00020001988FFF7DBFC23005E331B889AB2BE
:10120000002B1DD0230068331B88934218D9EFF3BD
:101210001080012282F310882168124D8B682B40C8
:101220008B6080F31088104B6367EFF3108182F3BB
:1012300010882023226810680343136081F310880C
:1012400005B0F0BD200001F02BFBD5E7082299691D
:101250000A439A61F4E7C046FFFEFFFFFEFFFFEF7F
:10126000FFFFFFFBFFFFFFEFF50E0008F0B50600E4
:10127000036885B0DD691A688C3603929A680400A9
:1012800001923268222A00D0C4E0030068331B8830
:10129000002B00D194E0030060331B8802932023CD
:1012A0001D4200D18CE023680298596AA26D01406A
:1012B000118021000232A2655E310A88013A92B2A1
:1012C0000A800722DD6915422FD0063A154208D060
:1012D0000399C90505D521001A62903108680243B7
:1012E0000A600222154209D00199C90706D52100DA
:1012F0001A6290310868921802430A60042215426B
:1013000009D00199C90706D51A622200022390323A
:1013100011680B431360270090373B68002B04D003
:10132000200001F0CBFA00233B6023005E331B88D2
:1013300099B2002BB3D1EFF31085013383F31088FA
:101340002068374F02683A40026085F31088EFF357
:10135000108583F310882068324F82683A4082609B
:1013600085F3108820223260226821675268616705
:1013700012020AD5EFF3108183F3108822682A48FD
:1013800013680340136081F31088E36E012B3DD195
:101390000022E266EFF3108083F3108821680F3398
:1013A0000A689A430A6080F310882268D16919425A
:1013B00000D0136223005C3320001988FFF7F7FB8D
:1013C00023005E331B889AB2002B1DD023006833A4
:1013D0001B88934218D9EFF31080012282F3108802
:1013E0002168124D8B682B408B6080F31088104B66
:1013F0006367EFF3108182F310882023226810685E
:101400000343136081F3108805B0F0BD200001F0A4
:1014100047FAD5E7082299690A439A61F4E7C0467A
:10142000FFFEFFFFFEFFFFEFFFFFFFFBFFFFFFEFF2
:10143000CD0F00080200F0B58432117803000220BD
:1014400001291FD01C000121883422301170206036
:10145000EFF3108681F310880C271D682868B843C5
:10146000286086F31088EFF3108081F310881968E4
:1014700008230D682B430B6080F310882023002085
:1014800023601070F0BD0200F0B5843211780300C3
:10149000022001291FD01C00012188342230117044
:1014A0002060EFF3108681F310880C271D682868F0
:1014B000B843286086F31088EFF3108081F310881A
:1014C000196804230D682B430B6080F310882023D8
:1014D000002023601070F0BD030088338C301B683F
:1014E000006818437047000070B504002569A168C2
:1014F000036829436569C26929431868504D11433F
:1015000028400143196059684E48256A0140E06847
:1015100001435960A169986829434B4D2840014314
:101520000F209960D96A8143606A0143D9624749B3
:101530008B4215D10321464B5B6D0B40013B022BC7
:101540006FD84449C85C80231B029A4237D10828CF
:1015500065D8FEF7BDFD6A640B64316464641400F1
:101560003D495B18591E8B411801ECE7384B3B484D
:1015700019680906490F0131FEF7B4FD0200616ADE
:10158000374B49001000C95AFEF7ACFD65684000B2
:101590006B08C0182900FEF7A5FD0200314B103A78
:1015A0009A423CD80F23020000079A4393B2400F9F
:1015B00022680343D3603CE0FFF72CF837E00828AB
:1015C0002DD8FEF785FD052C0A2C262C2C2C290065
:1015D000FFF75AF800282CD007E01D4B1F48196868
:1015E0000906490F0131FEF77DFD626A1C4B52006E
:1015F000D15AFEF777FD65686B08C0182900FEF721
:1016000071FD0200174B103A9A4208D82368D8603F
:101610000FE0FEF7FFFFDDE780200002E5E7012095
:1016200008E080231B029A42D2D1FFF72DF8021E58
:10163000A5D100200C4BA36600236367A36770BD90
:10164000F369FFCFFFCFFFFFFFF4FF110038014028
:1016500000100240F134000800BCFFBF006CDC0247
:10166000F4340008EFFF000001000100836A30B588
:101670001A0706D50168284C4A682240846B224329
:101680004A60DA0706D50168244C4A682240C46AD9
:1016900022434A609A0706D50168214C4A682240D5
:1016A000046B22434A605A0706D501681D4C4A68FC
:1016B0002240446B22434A60DA0606D501681A4C80
:1016C0008A682240C46B22438A609A0606D5016864
:1016D000164C8A682240046C22438A605A0610D550
:1016E0000168134D4A68446C2A4022434A608022B4
:1016F0005203944205D14A680E4C2240846C224326
:101700004A601B0606D502680B4953680B40C16C42
:101710000B43536030BDC046FF7FFFFFFFFFFDFF5F
:10172000FFFFFEFFFFFFFBFFFFEFFFFFFFDFFFFFFE
:10173000FFFFEFFFFFFF9FFFFFFFF7FFF7B504007D
:101740000D00170000932268D3692B405B1B5942A0
:101750004B41BB4201D0002026E0089B0133F3D06F
:10176000FEF7E8FD009BC01A089B98422DD8002B7D
:101770002BD023681A685207E5D52A004021403A49
:101780008A43E0D0DA6908261100314001913242E3
:101790000BD020001E62FFF7A7F8230090331E60D5
:1017A0000023012084342370FEBD8022D9691201F8
:1017B0001142C8D01A622000FFF796F823002022B9
:1017C00090331A60019B843423700320ECE70000FF
:1017D000030073B50026040090331E60FEF7AAFDD7
:1017E000236805001B681B071FD58021284B32008A
:1017F0000093890303002000FFF7A0FFB04214D03C
:10180000EFF31081012383F310888020226813688E
:101810008343136081F310882300202288331A60E9
:10182000032000238434237076BD260023688C3681
:101830001B685B0723D58021154B002200932000F5
:101840002B00C903FFF77AFF002818D0EFF31080B0
:10185000012282F3108821680E4D0B682B400B602B
:1018600080F31088EFF3108082F3108821688B6872
:1018700093438B6080F3108820233360D0E72300EC
:101880002022002088331A603260E0662067C8E7B3
:10189000FFFFFF01DFFEFFFF70B5041E01D1012035
:1018A00070BD050088352B68002B04D102008432FE
:1018B0001370FFF713F92423012122682B601368AA
:1018C0008B431360A36A002B02D02000FFF7CEFEEB
:1018D0002000FFF709FE0128E1D0236807495A6874
:1018E00020000A402A215A609A688A439A6001229D
:1018F00019680A431A60FFF76BFFD1E7FFB7FFFFD4
:1019000070B5041E01D1012070BD050088352B681B
:10191000002B04D1020084321370FFF7DFF8242378
:10192000012122682B6013688B431360A36A002B8C
:1019300002D02000FFF79AFE2000FFF7D5FD012816
:10194000E1D0236809495A6820000A4022215A60E0
:101950009A688A439A60082299680A439A60012229
:1019600019680A431A60FFF733FFCDE7FFB7FFFF9F
:1019700003005C3370B5816580241A805A8000238F
:10198000816843676401A1423CD1036959424B41DC
:101990001B02FF33010060310B80030000219033F4
:1019A00019602231043B1960EFF31084012383F3A3
:1019B000108801688D682B438B6084F31088802524
:1019C0008021466E84680369AD054901AE423FD16E
:1019D000050068352D8895423AD88C4233D1002BCA
:1019E00022D12C4B4367EFF31081012383F310883E
:1019F000802302685B0590680343936081F310883D
:101A0000002070BD002905D10169FF230029C1D044
:101A1000803BBFE780246405A142BBD101697F23DD
:101A20000029B7D0403BB5E71B4B4367EFF310816C
:101A3000012383F310880268FF3314682343136083
:101A400081F31088CFE7144A4267002BCBD0EDE733
:101A50008C421AD1002B0AD1104B4367EFF310814F
:101A6000012383F3108802681F3310680AE00C4BCF
:101A70004367EFF31081012383F31088026820335A
:101A80001068FF3303431360B8E7054A4267002B31
:101A9000E4D0EEE76D120008A1100008CD0F000899
:101AA000F50E000803008C3370B51C680223202C4F
:101AB00025D1013B002922D0002A20D08023846830
:101AC0005B019C4205D10369002B02D1013319420D
:101AD00015D10023C36603685B681B020CD5EFF3C6
:101AE0001085012383F3108880230468DB042668B3
:101AF0003343236085F31088FFF73AFF0023180073
:101B000070BD70477047836810B50400002B05D086
:101B10000322010098470023A360E36010BD83689F
:101B200010B50400002B02D00322010098472000CA
:101B300010BD00000C4A030090420ED00B4A9042A8
:101B40000DD00B4A90420CD00A4A0320934205D094
:101B5000094A0130934201D0FEE70020704701207E
:101B6000FCE70220FAE7C046002C014000040040D8
:101B700000200040004401400048014070B50400CE
:101B80000069FFF7D7FF05002000103000F0DCFBF4
:101B90000022084BAD00EA5026002500E260B43573
:101BA0006436B54204D0103D2800FFF7B8FFF8E7CF
:101BB000200070BDBC000020F8B5040008000D0036
:101BC000FFF7B8FF2369002B00D0FEE721001A4A77
:101BD00080000C31815022002C32256126001370C8
:101BE000203223636363A363E36323646364A364B6
:101BF0001370537003221036300025002700E46074
:101C0000E265236600F04CFB6435B43728001035DC
:101C1000FFF779FFBD42F9D10023084A23606360D2
:101C2000A3606361A3612362636280333000E26179
:101C3000A362FEF72BFEF8BDBC000020FFFF0000F2
:101C4000044B10B51868002802D00430FEF730FDB0
:101C500010BDC046BC00002010B5FFF7F1FF10BD5D
:101C6000044B10B55868002802D00430FEF720FD60
:101C700010BDC046BC000020044B10B59868002879
:101C800002D00430FEF714FD10BDC046BC00002099
:101C9000044B10B5D868002802D00430FEF708FDC8
:101CA00010BDC046BC000020044B10B518690028C8
:101CB00002D00430FEF7FCFC10BDC046BC00002082
:101CC00010B50C220021040001F016FB00232000B7
:101CD000E36010BDF8B50500070004000E00643590
:101CE000B43728001035FFF7EBFFBD42F9D10023D0
:101CF000310020002361FFF75FFF2000F8BD8368FB
:101D000010B5002B01D101F0DBFBC368984710BD73
:101D100010B5002800D1FEE700F0C0FA0068C36EDD
:101D2000002B02D06430FFF7EAFF10BD10B5FFF7BB
:101D3000EFFF10BD030010B5002800D1FEE7007FC3
:101D40000138072812D8FEF7C3F904161112111131
:101D500011140124180000F0A1FA24010068643471
:101D600000198368002B01D0FFF7C9FF10BD0324C1
:101D7000F0E70424EEE70224ECE710B5FFF7DAFF02
:101D800010BD10B5FFF7D6FF10BD0000014B186065
:101D90007047C0464400002010B501F0E7F910BDBF
:101DA00010B501F0EDF910BD7FB5002304280FD860
:101DB0001B4B5A6BFEF78CF9030F18212A000121E7
:101DC0000A435A635B6B0B400193019BA023DB0525
:101DD000180007B000BD02210A435A635B6B0B4039
:101DE0000293029B0F4BF3E704210A435A635B6B98
:101DF0000B400393039B0C4BEAE708210A435A6309
:101E00005B6B0B400493049B084BE1E720210A43E2
:101E10005A635B6B0B400593059B054BD8E7C046A7
:101E2000001002400004005000080050000C005058
:101E300000140050F7B5134B06001900019300F091
:101E4000FBF9FFF777FE104F8500EB59002B0DD102
:101E5000B420FFF7A1FF01990400300000F0ECF975
:101E600001002000FFF736FFEB591C601C68002CB6
:101E700006D02000FFF782FEB4212000FFF790FF7C
:101E8000F7BDC04680370008BC00002010B5FEF743
:101E900051FA10BD704710B5FEF740FAFEF7BFFAD1
:101EA000FFF7F8FF10BD704780210E4B4905DA6B34
:101EB00084B00A43DA63DA6B0A4001210192019A85
:101EC0001A6C0A431A641A6C0A4080210292029A20
:101ED0009A6B49010A439A639B6B0B400393039BE4
:101EE00004B070470010024010B5FFF7DDFFFEF7A9
:101EF00001FAFFF7D8FF00F04FFD0248FEF794FA11
:101F000010BDC0462000002010B50C2200210400A6
:101F100001F0F2F90023E36010BD0000002310B5CA
:101F200001280BD114225A43064B101DC01881689A
:101F3000002902D09B181B69984710BD0133400847
:101F4000DBB2EDE7D000002010B5FFF7E7FF10BDD2
:101F500010B5FFF7E3FF10BD10B50120FEF746FBFB
:101F60000220FEF743FB10BD10B50420FEF73EFB38
:101F70000820FEF73BFB10BD70B50C241025A8B25D
:101F8000013CFEF733FB6D00002CF8D170BD000062
:101F9000F8B505252E4F2F4C38002570FFF7B4FFFC
:101FA0002D4E25753000FFF7AFFF23000135283394
:101FB0002A481D70FFF7A8FF230029483C331D70F5
:101FC000FFF7A2FF23000135503326481D7060370C
:101FD000FFF79AFF24483D706036FFF795FF2348CE
:101FE0003570FFF791FF230021488C331D70FFF7F8
:101FF0008BFF23001F48A0331D70FFF785FF2300D0
:102000001D48B4331D70FFF77FFF23001B48C83302
:102010001D70FFF779FF23001948DC331D70FFF7AF
:1020200073FF23002600F03316481D70FF36FFF7BC
:102030006BFF15487571FFF767FF14487576FFF75A
:1020400063FF962312485B00E554FFF75DFFF8BD80
:10205000D4000020D0000020E8000020FC00002078
:102060001001002024010020380100204C01002034
:102070006001002074010020880100209C010020E4
:10208000B0010020C4010020D8010020EC01002094
:102090000002002010B5044C143C201DFFF73FFD4A
:1020A000024B9C42F8D110BD10020020D00000204D
:1020B000431C04D100207047834204D00C310B68CC
:1020C0005A1CF9D1F6E70120F5E70000F7B5050045
:1020D0000C00431C00D1FEE70F23484A0340C0B266
:1020E0009B0009389F5803280ED8FDF7F1FF022600
:1020F0003035C0232A009B011A409A4204D108239C
:102100003F4A11680B431360072628062640000F3C
:102110000196FFF749FE8268030094463A000320C7
:1021200066467A435043C143304398600198032880
:1021300052D8FDF7CDFF52542D15C0232A009B0124
:102140001A409A42E0D12E4A10231168DAE708219A
:102150002B4A13688B43D6E7294A10211368F9E705
:10216000032050431D68019E0D402843013E186026
:10217000012E04D8200734D5586838435860A40687
:10218000A40F012C30D0022C33D0DA680A402EE0A4
:102190006004400E84467F2801D10220E1E72D072C
:1021A0000DD50F25586A0600380A40434043454381
:1021B000AE4335006646704305435D62EDE7186A3D
:1021C0000F250600100050434543AE4335006646D8
:1021D000704305431D62E0E7FEE70020C1E70120F0
:1021E000BFE75868B843C9E7D86801400A43DA60D6
:1021F000F7BDD86852000140F8E7C0460C3500082A
:102200000000014010B5431C07D110BD834203D12B
:102210008968FFF75BFFF8E70C310B685A1CF5D1B2
:10222000FEE70B685A1C01D1002002E0834201D175
:10223000486870470C31F4E7002310B5421C02D007
:10224000FFF7EFFF0300180010BD4B68002B02D111
:102250000120404202E0834201D1086870470C31FE
:10226000F3E710B5002802D0FFF7EFFF10BD012003
:102270004042FBE7030008008B4205D0002B03D04F
:102280004242504140421840704700008022024BB9
:1022900012059A607047C04600ED00E004387047B0
:1022A0000368234A86B093420BD18021214B090158
:1022B0001A6C0A431A641B6C0B400193019B06B015
:1022C00070471D4A934209D102211A4BDA6B0A4327
:1022D000DA63DB6B0B400293029BF0E7174A9342F1
:1022E0000AD18021134B09021A6C0A431A641B6C31
:1022F0000B400393039BE2E7114A93420AD18021EA
:102300000C4B89021A6C0A431A641B6C0B40049331
:10231000049BD4E70B4A9342D1D18021054BC902DB
:102320001A6C0A431A641B6C0B400593059BC6E7A5
:10233000002C01400010024000040040002000403A
:1023400000440140004801400368134A934205D10C
:10235000124A1349136C0B40136407E0114A93426D
:1023600005D102210D4AD36B8B43D36370470E4ACC
:10237000934203D1094A0D49136CECE70C4A93428E
:1023800003D1064A0B49136CE5E70B4A9342EDD1A2
:10239000024A0A49136CDEE7002C0140001002409B
:1023A000FFF7FFFF0004004000200040FF7FFFFF19
:1023B00000440140FFFFFDFF00480140FFFFFBFF1D
:1023C0000300421C13D00E4A904213D007D80D4A86
:1023D000904211D00C4A1320934207D0FEE70B4ADB
:1023E00090420BD00A4A16209342F7D170470E2034
:1023F0004042FBE70D20F9E71020F7E71520F5E74D
:10240000002C014000040040002000400044014036
:10241000004801400300421C13D00E4A904213D0E2
:1024200007D80D4A904211D00C4A1320934207D08E
:10243000FEE70B4A90420BD00A4A16209342F7D18E
:1024400070470E204042FBE70E20F9E71020F7E727
:102450001520F5E7002C014000040040002000405A
:102460000044014000480140F8B50400FFF718FFA0
:102470002068FFF7A5FF226DE16CFDF761FF206882
:10248000FFF79EFFFDF786FF27683800FFF7C2FFC2
:1024900005003800FFF794FF854209D02800226D1F
:1024A000E16CFDF74DFF2068FFF7B4FFFDF772FF09
:1024B000F8BD0000F0B58FB0079314AB069204CBC3
:1024C00004001B780591099316AB1B7808920A93B8
:1024D00017AB1B780B93002802D100200FB0F0BD82
:1024E00005008F4BA0351900286827000493FFF7DB
:1024F000A3FE8C4EA437310001903868FFF79CFE94
:102500002300A833884900901868FFF795FE230040
:10251000AC33864902901868FFF78EFE31000390B5
:102520002868FFF789FE049905003868FFF784FEE4
:10253000019B0600002B01D1002DCED03B6801335A
:1025400004D0009B002B01D1002EC6D02300A8335D
:102550001B68013302D0029B002BBED02300AC339A
:102560001B68013302D0039B002BB6D00099019861
:10257000FFF780FE2060002804D131002800FFF71B
:1025800079FE20600299FFF775FE03992060FFF73E
:1025900071FE20600028A0D0654B984200D088E0F2
:1025A0008022644BD201196B634811431963196B84
:1025B00001401963196C114319641B6C13400C938F
:1025C0000C9B00221B232100B1310A702200B03283
:1025D0001370019B002B00D18AE02300A033186800
:1025E0004F49FFF70FFE009B002B7AD100270025F3
:1025F000029BAB4207D02300A8334B491868FFF772
:1026000001FE0135FF35039B002B08D080239B0082
:102610001D432300AC3345491868FFF7F3FD220042
:10262000231D0193B1321278444B9200211DD150E9
:102630002368E5616360059BE763A360069BE36035
:10264000089B2361079B63610C23A3610023236222
:102650000833E362099B002B04D00A23E362802342
:102660005B0263630A9B002B06D00123E26A1343DB
:10267000E36280239B0223630B9B002B06D0042381
:10268000E26A1343E3628023DB02A3630022B020EB
:10269000626220560121FDF753FE009B0198002B3A
:1026A0003BD1002E39D1FFF72BF943425841C0B23C
:1026B00014E7234B984200D00FE780221D4B920273
:1026C000D96A20481143D962D96A0140D962D96BCD
:1026D0001143D963DB6B13400D930D9B01221C2327
:1026E00071E72300A4330F491868FFF78BFD7DE7DE
:1026F000002D00D17AE72300A0330A491868FFF7BC
:1027000081FD002E02D180273F0270E72300A43311
:1027100003491868FFF776FDF5E7FFF7BDF8C4E752
:1027200008370008783600080C360008AC35000879
:102730000038014000100240FFBFFFFF10020020E0
:1027400000440040FFFFFDFF10B5B1300278064B9A
:102750009200D058FEF7C0FE222318402238434290
:102760005841C0B210BDC0461002002010B5B130B3
:102770000278064B9200D058FEF7AEFE2123184097
:10278000213843425841C0B210BDC046100200205B
:1027900070B504000E00002802D10120404270BD37
:1027A000FFF7D2FF051EF8D12100B2310B78B1340A
:1027B00033702078034B80000122C058FFF772F974
:1027C0002800ECE71002002070B504000D0000287E
:1027D0001AD0FFF7B9FF002816D1230098331D60E7
:1027E00025000020B0352856FDF7E0FD2100B1346A
:1027F0002078064B80000122C058B231FFF752F911
:1028000000202856FDF7C6FD70BDC046100200200E
:1028100070B50400150000281BD00300060000203E
:102820009C331960B0363056FDF7C0FD23002100FF
:10283000C233B8311B880968B1342078C918054BF8
:102840008000C058AAB2FEF74BF900203056FDF7C1
:10285000A1FD70BD1002002010B500280BD00300B0
:10286000A4331B68013306D1B1300278024B9200C9
:10287000D058FEF7DFFD10BD1002002010B5002873
:102880000BD00300A4331B68013306D1B1300278AA
:10289000024B9200D058FEF7F6FD10BD100200204A
:1028A000030010B594331B680438984710BD03002B
:1028B00010B598331B680438984710BD012203688F
:1028C00010B5D96904000438114201D01A620BE036
:1028D0000222D9691142F9D10422D9691142F5D1F4
:1028E0000822D9691142F1D1FFF72EFF002805D146
:1028F000210001222000AE31FFF7D4F810BD000006
:1029000010B51B20FDF77CFD024B1868FEF750F94F
:1029100010BDC046100200201C2010B5FDF770FD50
:10292000034B5868002801D0FEF742F910BDC0469D
:1029300010020020010010B50122AE31FFF7B2F8FD
:1029400010BD000003000A4910B50868C318EFF372
:102950000882934205D90C220120064B40421A609E
:1029600010BD054A054C121B9342F4D20B60F7E7E9
:1029700048000020D00400200030002000040000A7
:10298000FEE7000016220120014B40421A6070470A
:10299000D0040020012070470723174910B50A68AA
:1029A0009A43063B134380220B60144B5202196872
:1029B0000A431A608022920219681142FCD09A6878
:1029C0000F490A409A60072299689143063A0A43E0
:1029D00038219A609A680A40082AFBD19A68094906
:1029E00009480A409A60FFF7D1F90320FDF75AFC25
:1029F000002800D0FEE710BD002002400010024079
:102A0000FFF0FFFFFF8FFFFF006CDC02AA23A8216D
:102A10005B00C35A4900405A4033181A3F231840FC
:102A20007047AA235B00C25A043BC35A9A4203D0A0
:102A3000FC30C26CD05C704701204042FBE7A92308
:102A4000AB225B005200C35C805AC0B2834202D307
:102A5000C01A3F307047C01A0138FBE713B56B4608
:102A60000268D9710733546819000122A04716BDC6
:102A700037B56B46DD1D29000400FFF789FE0028ED
:102A800010D122003F21C032138801330B402100B6
:102A9000BC3109888B4205D0B434118820682D7868
:102AA0004554138037BD00000300010070B5C233E8
:102AB000C4311A880C6812193F2422401A8002007F
:102AC000BE3212881D880024AA4217D01D884032C9
:102AD0001C880B4B521BA4B21A4004D54023013A68
:102AE0005B421A43013240231B1B9A4200D91A0051
:102AF0000A6001240349FFF78BFE6442200070BD89
:102B00003F000080A92A0008F7B5036800919B6880
:102B1000019204009847A92340275B00E35A05006F
:102B2000FF1A012323742300FC33DB6B01330AD12A
:102B30005E23FF33E25C002A05D000222000E2542D
:102B40009430FFF789FE236820009B68984700288F
:102B5000F9D0019EBE4227D8AE4225D8A92327002E
:102B60005B00E35AFC37386D9A19C018402A34D8F4
:102B70003200009900F000FC3500A9225200A35A4F
:102B80003F219B1926000B4094363000A352FFF7DB
:102B9000EDFD002806D1FC342A0030001549E5651A
:102BA000FFF736FE0198FEBDBD4200D93D00236807
:102BB0002A005B68009920009847009B20005B1961
:102BC00000932368761B9B689847A9235B00E75A0C
:102BD000133BFF3B0500DF1BBCE74025ED1A2A0035
:102BE000009900F0C9FB009B386D721B591900F069
:102BF000C3FBC2E7A92A000810B5914201D1012107
:102C000049420400FC342364029BA2636364030012
:102C1000AA221433E36400235200E16383520200CA
:102C200054322265AB2252006365835210BDF7B562
:102C3000037C04000D00002B16D0FDF77BFBA927B9
:102C4000AB2601907F007600E25BA35B9A420BD03B
:102C5000002DFAD0FDF76EFB019BC01A8542F3D818
:102C6000A923A25B5B00E252F7BD10B50021FFF77C
:102C7000DEFF10BDCBB210B52E2B09D8E0220F4CD1
:102C80009B00D2000A4019591143FC30C16310BDAA
:102C9000C0220A40C02A0ED1D22B0CD83F23084CA8
:102CA0000B409B001B59E024044A9B009B58E40006
:102CB00021401943E9E701214942E6E7383B000892
:102CC000EC3A0008CBB210B52E2B09D8E0220F4CFD
:102CD0009B00D2000A4019591143FC30816310BD9A
:102CE000C0220A40C02A0ED1D22B0CD83F23084C58
:102CF0000B409B001B59E024044A9B009B58E400B6
:102D000021401943E9E701214942E6E7383B000841
:102D1000EC3A00080023F0B585B04360FA239B002D
:102D200083601E4B050003600123FC355B42EB63AF
:102D30001B4B04000E000392984218D1C7212000BB
:102D4000FFF798FFC6212000FFF7BCFF0123039A7D
:102D50005B42012A00D1EB63009301232000AA6BA0
:102D6000E96B5B42FFF748FF200005B0F0BD0D4A5C
:102D70000D4F92690D4B92003900D058FFF75CFA65
:102D80008642DBD00A493000FFF76BFA3900E8636E
:102D90003000FFF766FAA863D8E7C046103C000889
:102DA00018020020EC3A000808370008383B0008F9
:102DB000783600080300FC33DB6B10B504000133E8
:102DC0000DD10368DB6898475E23FF33E25C002A7D
:102DD00005D120000132E2549430FFF74FFD10BDC1
:102DE0000300F0B5FC3385B05966AF235B00C254D5
:102DF000583BFF3B1340023BDBB204000026042B90
:102E000001D81948C65C30231340302B25D1C0238C
:102E10000136DB00073E022E25D82500E77C12078D
:102E20000397A77C11480297677CD20F5203943511
:102E3000B6000092019732582800FFF73BFBAE2303
:102E40005B00E054002806D02000FFF7B3FF280005
:102E50000749FFF7B9FC05B0F0BD00239006D9D5AE
:102E600080230136D5E7FEE7003C0008F43B00086C
:102E7000712A000810B50400FFF79CFFAA23A822BE
:102E80005B005200E15AA35A994208D02100FC315C
:102E9000C96CC85C3F2101330B40A35210BD012017
:102EA0004042FBE710B5002202480349FFF732FF1A
:102EB00010BDC046180200200044004070B5050057
:102EC0000C00081E07D0FDF7FBF82B68020021005C
:102ED00028005B68984770BD10B50249FFF7EEFF08
:102EE00010BDC046EE34000870B50400FFF7E6FFE1
:102EF00005002000FFF7F0FF401970BD10B5FFF787
:102F0000F3FF10BD10B5040000F008F9E06023687D
:102F100020005B699847002808DA00F0FFF8E368B2
:102F2000C01AA3689842F2D30120404210BDF8B500
:102F300006000F0015000024AC4201D12000F8BDAE
:102F40003000FFF7DFFF431CF8D038550134F3E7BA
:102F5000F7B50F0016001D001C1E01900BD00024B9
:102F60000198FFF7CFFF431C05D0B84203D030557E
:102F70000134A542F4D12000FEBD10B500F0F0F8F8
:102F800010BD10B500E000BFFDF75CF9FDF776F964
:102F900000F0D6F8FAE700000D488546FFF776F90D
:102FA000002103E00B4B5B58435004310A480B4BA4
:102FB00042189A42F6D30A4A02E000231360043210
:102FC000084B9A42F9D300F0B1F9FFF7DAFFFEE7B8
:102FD000003000204C3C0008000000209C00002035
:102FE0009C000020D8040020FEE70000F7B5C3B223
:102FF000040001912E2B29D8E02226499B005C5821
:10300000D20002401443631C37D00F2625093540F7
:10301000214FAD00EB592640F340DB070DD52000D2
:103020001E49FFF745F8002802D02000FEF702FFF6
:103030000122B2407B5993437B51019B052B27D83A
:103040001800FDF745F816211B1D1F23C022024062
:10305000C02A12D1D22B10D83F23114903409B0024
:103060005B58E0210B4A9B009B58C9000C401C4355
:10307000C9E700212000FFF729F8F7BD1021F9E783
:103080002021F7E70321F5E70121F3E70921F1E723
:10309000FEE7C046383B00087C030020803700086C
:1030A000EC3A0008C3B210B52E2B19D8E022174C09
:1030B0009B00D200024018591043431C0FD0030656
:1030C00000221B0F042B02D8114A9B009A580F2490
:1030D000104B20408000C358002914D0936110BDCC
:1030E000C0220240C02AFAD1D22BF8D83F230A4C82
:1030F00003409B001B59E024044A9B009B58E400BA
:1031000020401843D9E79362E9E7C046383B0008FE
:103110000C0000200C350008EC3A000810B5FEF752
:10312000B5FE10BD70B5041E09D0FEF7AFFE050058
:1031300000F01AF8FEF7AAFE401BA042F8D370BDBB
:10314000054B10B5002B06D00448FFF75FFC0028A4
:1031500001D000E000BF10BD0000000018020020F8
:1031600010B5FEF7C1FE10BD7047000010B5034B4F
:103170000100186800F030F810BDC0464C00002077
:1031800010B5034B0100186800F000F910BDC046EF
:103190004C00002070B50F4E0D003168040000296E
:1031A00002D100F0B1F830602900200000F0ACF846
:1031B000431C03D101256D42280070BD0323C51CAB
:1031C0009D43A842F8D0291A200000F09DF8013054
:1031D000F2D1EFE790030020F7B50322CB1C934315
:1031E000083305001F000C2B34D20C27B94233D80A
:1031F000280000F071F8374E33681C00002C2FD1E6
:1032000039002800FFF7C6FF0400431C5FD1346873
:103210000094009B002B4AD1002C52D02368280038
:10322000E3180099019300F06FF8019B834248D1A5
:1032300023682800FF1A3900FFF7ACFF013040D0A7
:103240002368DB19236033685A68002A33D1009B56
:10325000336019E0002BC9DA0C232B600020FEBD7F
:103260002168C91B20D40B290AD9E2192760A3427F
:1032700004D1326063681160536005E05A60F9E779
:103280006268A3420ED13260280000F02DF82000C1
:1032900007220B30231D9043C21A9842DFD01B1A1D
:1032A000A350DCE75A60EFE723006468A6E7009CC0
:1032B00063680093ADE71A005B68A342FBD100236B
:1032C000DAE70C2328002B6000F00EF8C6E7076051
:1032D000DAE7C0469403002010B5024800F04AF82F
:1032E00010BDC046D404002010B5024800F043F8D9
:1032F00010BDC046D404002003008218934200D1C0
:10330000704719700133F9E7002370B5064D0400CA
:1033100008002B60FFF716FB431C03D12B68002B22
:1033200000D0236070BDC046D004002070B50026D8
:103330000C4C0D4D641BA410A64209D1002600F0D0
:10334000C3F80A4C0A4D641BA410A64205D170BDF7
:10335000B300EB5898470136EEE7B300EB589847B7
:103360000136F2E7343C0008343C0008443C0008D5
:10337000343C000870477047002310B59A4200D1D2
:1033800010BDCC5CC4540133F8E7000070B50500F3
:103390000C1E10D0043C2368002B00DAE41828002F
:1033A000FFF79AFF1D4A1368002B05D16360146074
:1033B0002800FFF799FF70BDA34208D920682118A3
:1033C0008B42F3D119685B6809182160EEE71A0097
:1033D0005B68002B01D0A342F9D911685018A042B4
:1033E0000BD120680918501811608342E0D1186889
:1033F0005B68411811605360DAE7A04202D90C23E0
:103400002B60D5E7206821188B4203D119685B68CF
:103410000918216063605460CAE7C0469403002025
:10342000062010B500F02CF80120FFF7A9FA70B5BE
:1034300004000D001F2904D9162303600120404217
:1034400070BDC36B002B04D08A009B181A68002A39
:1034500008D1200000F030F82A000100200000F020
:1034600019F8EDE7012A09D0511C03D11623036096
:103470000120E5E700212800196090470020DFE7E0
:1034800010B5034B01001868FFF7D1FF10BDC0460F
:103490004C000020002370B5064D04000800110008
:1034A0002B60FFF76FFA431C03D12B68002B00D071
:1034B000236070BDD004002010B5FFF76BFA10BD7B
:1034C00010B5FFF7ADFF0000F8B5C046F8BC08BC6A
:1034D0009E467047F8B5C046F8BC08BC9E4670478B
:1034E00048656C6C6F2C2053544D333221000D0A0B
:1034F00000040208010002000400060008000A009F
:103500000C001000200040008000000101000000BD
:10351000020000000400000008000000100000008D
:1035200020000000400000008000000000010000BA
:10353000000200000004000000080000001000006D
:10354000002000000040000000800000000000009B
:10355000000000000000000000000000010000006A
:103560000200000003000000040000000000000052
:10357000000000000000000000000000000000004B
:10358000000000000000000000000000010000003A
:10359000020000000300000004000000060000001C
:1035A0000700000008000000090000000000000003
:1035B00000440040120100000B00000000380140F0
:1035C0001201000014000000003801401204000045
:1035D000160000000038014012050000170000002E
:1035E00000440040120900001800000000440040A0
:1035F00012010000330000000044004012000000EF
:10360000FFFFFFFF000000000000000001000000BD
:1036100000440040120100000C000000003801408E
:10362000120100000E00000000380140120C0000E2
:103630000F000000003801401204000013000000D9
:10364000003801401204000016000000003801405C
:1036500012040000190000000044004012010000A4
:103660002E0000000044004012090000FFFFFFFF91
:1036700000000000000000000100000000380140D0
:10368000120400000300000000440040120100008A
:103690000500000000440040120100000800000086
:1036A00000380140120E00000A00000000380140FE
:1036B000120100000A300000003801401201000031
:1036C0000D00000000440040120400000E00000045
:1036D00000440040120900000F00000000440040B8
:1036E000120100001200000000380140120000002A
:1036F000170000000038014012000000FFFFFFFF2C
:103700000000000000000000000000000038014040
:1037100012040000020000000044004012010000FA
:1037200004000000004400401201000008000000F6
:103730000044004012010000090000000038014070
:1037400012010000093000000038014012010000A1
:103750000E000000004400401201000016000000AE
:1037600000380140120000002E0000000038014027
:1037700012000000FFFFFFFF00000000000000003B
:1037800000000000002C0140128500000001000034
:10379000004401401282000001000000002C0140A2
:1037A00012050100010100000048014012820000E2
:1037B00002000000002C01401285010002010000FF
:1037C000004401401282100003000000002C014060
:1037D0001282100003010000002C014012050200BB
:1037E00004000000002C014012021100040100003E
:1037F0000020004012840000040200000048014044
:103800001285100005000000002C01401285000008
:1038100005010000002C014012821100060000008A
:103820000004004012810000060100000044014035
:103830001285000007000000002C014012821000D9
:10384000070100000004004012010100070200000F
:1038500000200040128400000703000000480140DF
:103860001285000008000000002C014012820000B8
:1038700008010000002C014012091100080200009C
:10388000002C0140128A11000803000000040040CF
:10389000128B01000804000000040040120C02001A
:1038A0000805000000200040128D00000900000003
:1038B000002C01401202010009300000002C0140E0
:1038C000120201000A000000002C014012820100D7
:1038D0000A300000002C0140128201000B000000A1
:1038E000002C0140120202000E000000002C0140DA
:1038F000128A00000F000000002C0140128200001C
:1039000010000000002C0140120211001001000004
:10391000000400401281010011000000002C014051
:103920001205110011010000002C0140128211004B
:103930001102000000040040120102001103000007
:10394000002000401280000013000000002C014005
:1039500012010100130100000004004012030100E5
:103960001400000000040040128100001500000057
:103970000004004012010100150100000004004095
:103980001283010016000000002C0140120B010000
:1039900016010000002C01401281010016020000F7
:1039A00000040040128C00001603000000040040D8
:1039B000120D0100160400000004004012830100F3
:1039C000160500000044014012821000170000009C
:1039D000002C014012010200170100000004004009
:1039E000128B0000170200000004004012030200C6
:1039F0001703000000440140128A00001704000071
:103A0000004801401282100018000000000400402D
:103A100012830000180100000044014012820000DF
:103A20001900000000040040120301001901000009
:103A300000480140128200001D000000002C0140DF
:103A4000128210001E000000002C01401202110022
:103A50001F000000002C014012821100260000000F
:103A60000004004012810000270000000004004014
:103A7000120101002E00000000040040120B0100A2
:103A80002E01000000480140128A00002F000000B3
:103A90000004004012830100300000000044014097
:103AA0001282000031000000004801401282000034
:103AB00032000000002C0140128210003300000090
:103AC000002C0140120211004000000000200040C4
:103AD0001282000042000000002C0140120102008E
:103AE000FFFFFFFF00000000000000001D000000BD
:103AF0001E0000001F000000200000002100000048
:103B0000220000001A000000230000000D00000049
:103B10000C0000000B000000280000001300000053
:103B2000120000000A00000026000000040000004F
:103B3000190000002500000017000000160000001A
:103B40000A000000130000001A000000140000002A
:103B5000150000000F000000090000002700000011
:103B60001000000007000000060000000500000033
:103B700019000000180000003000000032000000B2
:103B80000E0000000D000000260000002D000000C7
:103B90002E00000040000000410000001B0000005B
:103BA00002000000310000003300000000000000AF
:103BB0000100000004000000110000000B000000E4
:103BC0000C000000030000002F0000001C0000009B
:103BD0001200000043000000080000001F00000069
:103BE0001E0000001D00000042000000093000001F
:103BF0000A3000000000001000000000001000006B
:103C0000060007000800000000000000000000009F
:103C10005D2A0008092B00083F2A00086B2C0008C9
:103C20000D2A0008752E0008232A00082F2F0008EF
:043C3000512F000808
:103C34007B2F000825020008911F0008A52E00080C
:083C4400FD01000895200008B5
:103C4C000100000001000000040000000000005012
:103C5C000004005000080050000C005000140050EC
:103C6C0000300240000000000000000000000000D6
:103C7C000000000000000000000000000000000038
:103C8C0001000000001BB700D804002050000020E9
:103C9C0000000000980300200004002068040020AD
:103CAC000000000000000000000000000000000008
:103CBC0000000000000000000000000000000000F8
:103CCC0000000000000000000000000000000000E8
:0C3CDC00000000000000000000000000DC
:0400000508002F9927
:00000001FF
