:020000040800F2
:10000000003000204D5200089D5200089D5200080B
:1000100000000000000000000000000000000000E0
:100020000000000000000000000000009D520008D9
:1000300000000000000000009D520008A1460008DA
:100040009D520008000000009D5200089D520008CB
:100050009D520008B1460008C1460008D14600087C
:10006000000000009D5200089D5200089D520008AB
:100070009D520008134600082946000800000000B1
:10008000314600080000000000000000494600085A
:100090000000000061460008794600080D4600088F
:1000A000000000009D52000800000000F546000816
:1000B00015470008000000000000000000000000DC
:1000C0007047032349434B43DB43012A04D0022AF0
:1000D00007D0C268134002E0C26813400B43C360FC
:1000E0007047C26849001340F8E700207047704726
:1000F000F0B51D0089B00EAB00241C5F0FAB1B8850
:100100006F1A0593A31A160001900092F817DA17D8
:100110009B183F1853404740029303970398029F50
:10012000A4462A000B00874205DC330022000E00A3
:100130002C0019006546A64208DC180013000200D6
:1001400028000D0001002000340006009B1ADA1779
:100150009B185340301B079303B2DA0FD3185B1080
:100160000093012387B2069704938D4201DB023B83
:100170000493B44201DD09B0F0BD019B039A1B68F2
:100180009B691F00029B934216DD22002900059BFC
:100190000198B847009A079BD31A19B29AB20091F6
:1001A0001B0406D5049BED18069B2DB29A1813B2BA
:1001B0000093013424B2DCE72A002100059BE7E725
:1001C00010B504682469A04710BD37B506AC258872
:1001D00004680095A46BA04737BD37B506AC2588E9
:1001E00004680095E46BA04737BD73B506AC0025E5
:1001F000655F07AC2688046801960095246CA047CB
:1002000073BDF0B5160004000D0085B003930AAB72
:100210001F8803685B699847039B2268013B9B1911
:100220001BB2009301972B0029002000976A32002F
:10023000B84723682000DB6A984705B0F0BDF0B5E9
:1002400005001C000E00170085B00AAB1B88013C9E
:10025000039303685B69984703992A68A31901917E
:10026000009731002800946A1BB23A00A0472B681F
:100270002800DB6A984705B0F0BDF0B50E0087B0E6
:1002800003930CAB029200229B5E040004930DAB1F
:100290001B883500059303685B699847039A2368B8
:1002A000B218954204DB2000DB6A984707B0F0BD26
:1002B000059A290000921F6A2000049B029A0135CA
:1002C000B8472DB2EAE713B501910E24015F0C2265
:1002D000835E02680091146C00221100A04713BDD8
:1002E000F0B585B01E000AAB0027DF5F0BAB1B88A3
:1002F00014000500026802910393B14210D1BC4280
:1003000002DC3B0027001C00039901340091E31B31
:10031000966B28003A0002991BB2B04705B0F0BDB9
:10032000BC4211D1029BB34202DC3300029E029315
:10033000029B0399013300919B1BD76B3100220074
:1003400028001BB2B847E9E753699847039A2B681E
:100350000192009728009F6A220033000299B84753
:100360002B682800DB6A9847D8E7F0B50400150031
:1003700087B004930CAB00229B5E039105930DABF9
:100380001E8803685B699847236800962A0020004E
:100390005F6A0399049BB847059B20005A1E236897
:1003A000521900965F6A0399049B12B2B8472368FA
:1003B00000962A0020001F6A0399059BB8470499FC
:1003C000039B0139C918236800962A0020001E6A81
:1003D00009B2059BB04723682000DB6A984707B045
:1003E000F0BDF0B595B01D001AAB1B8803920493C5
:1003F0001BAB1E881CAB1F781DAB1B78026A040068
:1004000008910293002A00D0BAE00C22835E8B424E
:100410007ADD0E22835E039A934275DD06237B43C9
:100420005B18002B70DD029B039ADB009B18002BEE
:100430006ADD037F002B03D1AF2D01D90135EDB269
:10044000236820005B69984705235D430B930023D5
:100450000693914B5B190E93069A0E9B9B5C0A9335
:100460006B461B8B09936B461B8C0593099B059A66
:100470007B43D3181BB20D9308230C9300230793DF
:1004800001220A9B2068134250D06B469A8B9989AF
:10049000012F3BD1029B012B38D1099B52180599A2
:1004A00085695918049B12B209B22000A847079B1E
:1004B00001335BB207930A9B5B080A930C9B013BD9
:1004C000DBB20C93002BDBD1069B01335BB20693AE
:1004D0000B9B013BDBB20B93002BBDD1049BB342C2
:1004E0000ED02068012F3CD1029B012B39D10599F8
:1004F00000960531056A039A200009B20733A84720
:1005000023682000DB6A984715B0F0BD029D3BB21E
:100510006A438A18049912B2019169460825495F15
:100520000091C5690D992000A847C0E7049BB3421C
:10053000BDD06B469A8B9989012F0BD1029B012B61
:1005400008D1099B521805998569591812B23300D0
:1005500009B2AAE7029D3BB26A438A1812B2019619
:10056000DBE705227A43059901968A1811B2029AAF
:100570003BB2D2000092C569039A2000A847BFE7AA
:10058000137A5168ED1A1268EDB2ED0011924A5BD0
:100590004B1907929A780D92DA78129205229A56A0
:1005A0009B790E925BB20F9300230C930B93029BEB
:1005B0003B43012B02D90F9B0B920C932368200025
:1005C0005B69984700231E0009930693129B9E4285
:1005D00000D395E76B469B89029A0A930C9BF3180C
:1005E00053430A9AD31800221BB210930592099B19
:1005F00032E05A1CD2B213920722134207D1079B52
:100600000799119A0133525C9BB2069207936B468D
:100610001B7E5BB2002B16DA6B462068198C012F0B
:1006200026D1029B012B23D10A9B0F9A9A180E9B6D
:10063000B218C918059B12B25918836909B21D0076
:100640002000049BA847069B059D5B00DBB201359B
:100650000693EBB20593139B0D9A05999142C8D36B
:100660009446099B01366344DBB20993F6B2ADE7C9
:10067000059D0B9A3BB252197A438918049A09B224
:1006800001926A460825525F0092C2692000150057
:10069000109AA847D7E7C04664600008F0B5026A20
:1006A00004000B0085B0002A34D10A2908D1437E0A
:1006B0000282DB00628A9B186382012005B0F0BDD4
:1006C0000D29FAD0E17E007E657E00290ED010262D
:1006D000A15F0626464389190C27E65FB14205DD76
:1006E0001226A15F2282EA00521862821221625E03
:1006F0001026A15F03950290E08A0190A08A0090E5
:100700002000FFF76EFE0622237E5343228A9B18A9
:100710002382D2E70A2905D100230382127B437E7C
:100720005343C7E70D29C8D0117A8B42C5D3907ABD
:100730009842C2D3591A5568C9B2C9006D18AF782A
:10074000002F28D0E978002925D0E17E207E667E22
:10075000002913D005216956C91941438C4610213F
:10076000675EBC440C21675EBC4507DD1227E15F74
:1007700000272782127B7243521862821221625E26
:100780001027E15F03960290E08A0190A08A009012
:100790002000FFF726FE2B79227EB6E703230B40CD
:1007A00010B583760822835E0A24025FC90702D44B
:1007B000190013000A008281C38110BD7047038BAA
:1007C000C08A181A7047C28A018B0300914204D96B
:1007D0000169885C0132DA82704701204042FBE700
:1007E000C38A028B9A4202D90269D05C7047012009
:1007F0004042FBE7002805DB1F2318401E3B8340D7
:10080000014A13607047C04600E100E0002809DBA0
:100810001F2318401E3B8340034AD367BFF34F8F0B
:10082000BFF36F8F7047C04604E100E010B5FF24AE
:1008300003220B0021000240D20091409B01234083
:10084000C943934000280ADBC0240B4A800880007B
:100850008018A40002590A401343035110BD0F220F
:1008600010400838054A800880008018C26911408D
:100870001943C161F2E7C04600E100E000ED00E08D
:10088000F8B50123411DCB77841DE27F022A03D0F6
:100890000422C2631800F8BD0E2602681568B5432D
:1008A00015601568466C9D4315603268114D2A40ED
:1008B0003260026C104E15001C221540AB40776868
:1008C0003B437360C26C836C5A60036D002B06D08F
:1008D0001A68084D2A401A60436D826D5A600123E0
:1008E000E3770023CB77836B002B00D09847002061
:1008F000D1E7C046FFFEFFFF0000024003689A698F
:10090000920701D500229A6201229969114202D10F
:1009100099690A439A61704730B5039C0068234384
:10092000120489051A43890D054B45680A43640D75
:10093000234352009D4352082A43426030BDC046C3
:10094000FF63FF0310B5436B124C0AB2A34210D0F1
:10095000114CA3420DD0114CA3420AD0002A0FDB48
:100960009023102900D0703B01680A6813430B6084
:1009700010BD002A04DB90231029F5D0303BF3E7AB
:10098000FA23CA0700D4423B8907EDD5F42213436A
:10099000EAE7C046F50C0008953B0008FD0D00088D
:1009A00070B50600913633780400051F012B05D180
:1009B000AB6E002B02D02800EB6E984702233370F9
:1009C0000023AB66230041331A78202A08D1802106
:1009D00008321A70034B200063630902FFF7B2FF6D
:1009E00070BDC046773A00080300010010B54133DE
:1009F0001C7800224031602C04D1403C1C70026302
:100A00000A7010BD02630A70020092321278002A46
:100A1000F7D11A78202AF4D1802108321A70034BBA
:100A200009024363FFF78EFFEBE7C046773A000801
:100A3000806A10B5836B002B01D000229A63C36BD0
:100A4000002B01D000229A63FFF7CEFF10BD0023D8
:100A500010B5CA0708D5030041331A7828231A4075
:100A6000CA33282A00D1B03B8A0708D502002824BF
:100A7000413212782240A2420BD14422134309B2E0
:100A8000002901DAB822134301680A689A430A6010
:100A900010BDF422F2E702000023202110B54232FB
:100AA0001370013A04001078117021280AD1112224
:100AB000636322631F392000FFF7C9FF002340341E
:100AC000237010BD1222022122636363F3E7184BE7
:100AD00010B5C362002302000363040020204132EA
:100AE0001070537004226363114212D02368596A54
:100AF000636A1970636A01336362238D002B08D027
:100B0000013B2385638D013B9BB26385636C1A4374
:100B1000626420000749FFF79AFF10222368200033
:100B2000DA612300002240331A70FFF739FF10BD4D
:100B30000000FFFF0380000070B5050000220400E4
:100B4000413542302B7802703948283BE06262859B
:100B5000626C0A436264022B2AD803212000FFF74B
:100B600076FF28232B70334BA06B6363236B002825
:100B70003FD01A001021113A8A433AD123681A68EB
:100B8000520403D51A682C490A401A60831DDB7F82
:100B9000012B2AD0294B00228363230040331A7093
:100BA000FFF76EFE002823D0A06B836B98471FE0F1
:100BB00020002349FFF74BFF2000FFF79FFE2B7813
:100BC000602B10D020222A702368996911420AD024
:100BD0009969103A114204D0DA61616C0C3A0A4307
:100BE00062642022DA610023BEE72000FFF7FCFEEA
:100BF00070BDE06B0028F8D01022123B9343F4D173
:100C000023681A68120403D51A680E490A401A604C
:100C1000831DDB7F012BE8D0084B00228363230078
:100C200040331A70FFF72CFE0028E1D0E06BBCE7E0
:100C30000000FFFF773A0008FFBFFFFF310A0008FE
:100C400003800000FF7FFFFFF7B520230500066843
:100C50004135F3612B7804000F00212B2BD10121AA
:100C6000FFF7F5FE112323637368204A1340736076
:100C7000002363631E4BE36210231F4204D0F36121
:100C8000626C0C3B134363642B78602B05D17F07A8
:100C900003D5736ADBB20193019B2000FFF72EFEA0
:100CA000636C2A78602A01D0002B0CD02000616C84
:100CB000FFF742FFF7BD2B78222BD5D10221FFF79A
:100CC000C6FE1223CFE72A78212A09D1013A2A70D9
:100CD0002200236342324034117813702370E9E715
:100CE0002A78222AE6D1023AF1E7C04600E800FE5F
:100CF0000000FFFFF7B5070040373B7804000220F3
:100D0000012B15D001233B700F33194211D01A4229
:100D10000FD022682000D361626C0C3B134320216A
:100D20006364FFF70FFE2000FFF7E8FD0020387036
:100D3000FEBD4023080641D51A423FD026683268DE
:100D40009A433260638D002B2CD07168638D8905C6
:100D5000890DFF2B17D9FF25802325855B040020F3
:100D6000EAB200902000FFF7D7FD638D5B1B9BB2BA
:100D70006385413423783268222B10D180231B02F3
:100D800013433360D2E7658D1B4BE26AADB2258514
:100D90009A4201D0E36AE2E780239B04DFE78023E5
:100DA000DB01EDE773689B0103D42000FFF773FEBE
:100DB000BCE740212000FFF7BFFEB7E7194212D081
:100DC0001A4210D0638D002BF3D1226853689B0127
:100DD000ACD4E16A084B9942E7D180235168DB012A
:100DE0000B435360A2E7202319429FD01A429DD0A3
:100DF0002000FFF729FF99E70000FFFFF7B5060085
:100E00004036337804000220012B15D001233370C3
:100E10000F33194211D01A420FD022682000D3613B
:100E2000626C0C3B134320216364FFF78BFD2000B1
:100E3000FFF764FD00203070FEBD0223194208D088
:100E40001A4206D02368226D9A6201235B42236511
:100E5000F0E740250B063ED52A423CD00121200078
:100E6000FFF7F5FD10212000FFF76CFD638D002BCF
:100E70002CD0638DFF2B19D90023BF35E16C25855C
:100E8000009380232A0089B25B042000FFF744FD11
:100E9000638D5B1B9BB26385230041331A78236803
:100EA0001968222A0DD1802212020CE00023658DE0
:100EB000E16CADB2258500938023EAB289B29B0430
:100EC000E3E78022D2010A431A60B3E72900200039
:100ED000FFF732FEAEE7294230D02A422ED027005B
:100EE00001212000FFF7B3FD413710212000FFF75B
:100EF00029FD3B78223B5A425341164A9B029B18DC
:100F0000628DFF2A10D9FF25E16C2585009380238F
:100F10002A0089B25B042000FFF7FEFC638D5B1B97
:100F20009BB263853A78BAE7658DE16CADB22585F1
:100F300000938023EAB289B29B04ECE72023194294
:100F400000D177E71A4200D174E72000FFF77CFE5A
:100F500070E7C0460020008038220F4B996811428C
:100F600005D11B680D489B045B0FD84070479968FA
:100F7000114008290BD099681140202909D09B689D
:100F800000201340182BF1D1FA20C001EEE70348EE
:100F9000ECE780200002E9E700100240006CDC0270
:100FA00010B5FFF7D9FF1F21094C0A4AA3681B059A
:100FB0001B0F9B009B580B40D840074B1860A36841
:100FC0005B045B0F9B00D218136C0B40D84010BD24
:100FD00000100240985600080000002070B5040080
:100FE0000568C36982680069296802436069024331
:100FF0004F481A4301400A432A606A684D49206AF3
:101000000A40E1680A436A60A269A96802434A4843
:1010100001400A430F21AA60EA6A8A43616A0A43CF
:10102000EA62464A954215D10321454A526D0A406B
:10103000013A022A6DD84349885C80221202934209
:1010400036D1082863D803F093FC68620B623062E3
:10105000626214003C4AA818421E90410001ECE76D
:10106000374B3A4819680906490F013103F08AFCE9
:101070000300616A364A4900895A180003F082FC6D
:10108000666840007308C018310003F07BFC020062
:10109000304B103A9A423AD80F23020000079A4385
:1010A00093B2400F0343EB603BE0FFF755FF36E0A0
:1010B00008282CD803F05CFC052B0A2B252B2B2BA6
:1010C0002800FFF76DFF00282BD007E01C4B1F48BE
:1010D00019680906490F013103F054FC626A1C4B80
:1010E0005200D15A03F04EFC66687308C0183100F4
:1010F00003F048FC0200174B103A9A4207D8E86008
:101100000FE0FFF729FFDEE780200002E6E701207D
:1011100008E0802212029342D3D1FFF741FF031E61
:10112000A7D100200C4BA36600236367A36770BDA3
:10113000F369FFCFFFCFFFFFFFF4FF11003801403D
:1011400000100240F856000800BCFFBF006CDC0233
:10115000FC560008EFFF000001000100836A30B573
:101160001A0706D50168284C4A682240846B22433E
:101170004A60DA0706D50168244C4A682240C46AEE
:1011800022434A609A0706D50168214C4A682240EA
:10119000046B22434A605A0706D501681D4C4A6811
:1011A0002240446B22434A60DA0606D501681A4C95
:1011B0008A682240C46B22438A609A0606D5016879
:1011C000164C8A682240046C22438A605A0610D565
:1011D0000168134D4A68446C2A4022434A608022C9
:1011E0005203944205D14A680E4C2240846C22433B
:1011F0004A601B0606D502680B4953680B40C16C58
:101200000B43536030BDC046FF7FFFFFFFFFFDFF74
:10121000FFFFFEFFFFFFFBFFFFEFFFFFFFDFFFFF13
:10122000FFFFEFFFFFFF9FFFFFFFF7FF30B5EFF37B
:101230001084012282F310880168134D0B682B4043
:101240000B6084F31088EFF3108182F3108802683A
:101250000E4C93682340936081F31088C36E012B7A
:101260000AD1EFF3108183F3108810240268136809
:10127000A343136081F31088030020228C331A608B
:101280000023C366436730BDDFFEFFFFFEFFFFEFB5
:10129000030088331B6870B5212B21D103000100A6
:1012A00080246A331B885631002B19D00A88002A03
:1012B00017D1EFF31084013282F310880168114DC9
:1012C0008B682B408B6084F31088EFF3108182F3DE
:1012D00010884023026810680343136081F310886C
:1012E00070BD0568EA69224208D0026D16780132A5
:1012F000AE6202650A88013A92B20A80013B9BB253
:10130000D2E7C046FFFF7FFF030088331B6870B53C
:10131000212B21D10300010080246A331B88563120
:10132000002B19D00A88002A17D1EFF3108401325C
:1013300082F310880168124D8B682B408B6084F318
:101340001088EFF3108182F3108840230268106840
:101350000343136081F3108870BD0668F26922426E
:101360000AD0056D2A880235D205D20DB262056514
:101370000A88013A92B20A80013B9BB2D0E7C0468C
:10138000FFFF7FFF30B5EFF31084012282F3108856
:10139000802501680B68AB430B6084F31088EFF382
:1013A000108182F3108840230268106803431360A1
:1013B00081F3108830BD030088331B6810B5212BE2
:1013C00006D1020056321388002B02D1FFF7DAFF54
:1013D00010BD036D01681C7801338C6203651388AE
:1013E000013B9BB21380F3E7030088331B6810B501
:1013F000212B06D1010056310B88002B02D1FFF7BB
:10140000C1FF10BD026D046813880232DB05DB0DDD
:10141000A36202650B88013B9BB20B80F1E70C4A8B
:10142000030090420ED00B4A90420DD00A4A9042DF
:101430000CD00A4A0320934205D0094A0130934256
:1014400001D0FEE7002070470120FCE70220FAE708
:10145000002C0140000400400020004000440140F6
:101460000048014037B5FA240B4A0C4B10689968C4
:10147000A400019115689A6800925968013185426B
:1014800007D00098081A604303F07CFA6C430019F7
:101490003EBD0198F6E7C0464C01002010E000E098
:1014A000F0B50A00050089B0431C00D1FEE70F210A
:1014B0005C4B01408900C0B25B180938D96F032822
:1014C0000ED803F055FA02182227C02328009B01EA
:1014D0001840984204D1082353480468234303600A
:1014E0002806000F042800D998E0504B03F040FA7A
:1014F00016333D475100C02328009B0118409842F5
:10150000EED1494810230468E8E7082446480368F8
:10151000A343E4E7444810240368F9E70124586B27
:10152000204358635B6B23400793079BA023DB0595
:101530000E00032407204E43744310400090E04304
:101540009F680190009827439F6003285ED803F0AE
:101550000FFA5E60412A0224586B204358635B6B8C
:1015600023400693069B324BE2E70424586B20434A
:1015700058635B6B23400593059B2E4BD8E70824EB
:10158000586B204358635B6B23400493049B2A4BA6
:10159000CEE72024586B204358635B6B23400393B2
:1015A000039B264BC4E703251C6801986E43044047
:1015B0000098344301381C60012804D810072AD54C
:1015C00058680843586092061800920FFEF779FD9C
:1015D00009B0F0BD57047F0E7F2F0BD02D070BD520
:1015E0000F200C0A6443644360437C435D6A854377
:1015F00025435D620225D7E734000F207443604322
:101600007C431D6A854325431D62F3E7FEE7002501
:10161000CAE70125C8E758688843D3E700239B68D9
:10162000FFDEC0469856000800000140001002404E
:101630000004005000080050000C0050001400503E
:1016400010B5431C07D110BD984203D18968FFF73C
:1016500027FFF8E70C310B685A1CF5D1FEE7431C55
:1016600002D1002006E00C310B685A1CF9D09842D8
:10167000F9D148687047030008008B4205D0002B61
:1016800003D042425041404218407047F0B589B003
:101690000493884B04000F00C06E87491600059321
:1016A000FFF7DDFF854D86490090A06EFFF7D7FF5D
:1016B000290001904031206FFFF7D1FF2900636FAF
:1016C00002907C3118000393FFF7C9FF009B0500CF
:1016D000002B00D1ECE0019B002B00D1E8E0029B45
:1016E000002B00D1E4E001990098FFF7C4FF290026
:1016F00000900298FFF7BFFF010001900098FFF7EC
:10170000BAFF009B05006066002B00D1D0E0019B72
:10171000002B00D1CCE0002800D1C9E0039B206061
:1017200001335A425341674A5B4213408022D2023E
:101730009B18A36182235B006360FFF731FC0023E9
:101740004208BA4218D982080833974214D2C20814
:101750000833974210D20209083397420CD242094B
:101760000833974208D282090833974204D2C0094D
:101770000833874200D20833371EE361009609D050
:1017800000230093022E05D0731E5A1E93415F0062
:1017900001230093009B002663610723E362E0239B
:1017A000DB00E360049B05995A425341DB0123624D
:1017B000E06E3C31A6602761A662666266630293B2
:1017C000FFF73EFF3E49A06EFFF73AFF236F3B490C
:1017D000180040310193FFF733FF7A427A41019BB1
:1017E00030001B0601321B0F042B03D836499B0027
:1017F000C918486C0F23019E34491E40B300C91814
:10180000C96FFEF75EFC3249606FFFF719FF314B7D
:101810009D4210D18022304B5201196C1143196442
:10182000196C114007910799196B0A431A631A6BD7
:101830002A490A401A6382216368002249008B42C8
:1018400000D0E2612000A2625D300278D1B2002AAD
:1018500002D122005C3211708226022276003340CF
:10186000009E40213343029E0270334380262A6843
:10187000B6008A432A60A269164033430093382396
:10188000E669120C1E40009B33433B432B6004234C
:101890001A40B8235B0113436B60EB69104A134095
:1018A000EB6100232366013303702B681943296021
:1018B00009B0F0BD185700085457000898570008A1
:1018C0009C5700080002FCFF1858000898560008B2
:1018D000145800080030014000100240FFEFFFFFE5
:1018E000FFF7FFFF020070B5343212780300002AC0
:1018F0001AD1406A996A9A8D0300846F7C338C42B6
:1019000002D11C8894420FD004000D0A783465700F
:101910000D0CA5700D0E2170E570140A1A705C7024
:10192000D3B22200FFF7B2FE70BD0368234A86B02F
:1019300093420BD18021224B09011A6C0A431A648D
:101940001B6C0B400193019B06B070471D4A9342EC
:1019500009D102211A4BDA6B0A43DA63DB6B0B40C5
:101960000293029BF0E7184A93420AD18021144B5C
:1019700009021A6C0A431A641B6C0B400393039B05
:10198000E2E7124A93420AD180210D4B89021A6C78
:101990000A431A641B6C0B400493049BD4E70C4A63
:1019A0009342D1D18021064BC9021A6C0A431A64B2
:1019B0001B6C0B400593059BC6E7C046002C0140FD
:1019C000001002400004004000200040004401409C
:1019D000004801400300421C13D00E4A904213D02D
:1019E00007D80D4A904211D00C4A1320934207D0D9
:1019F000FEE70B4A90420BD00A4A16209342F7D1D9
:101A000070470E204042FBE70D20F9E71020F7E772
:101A10001520F5E7002C01400004004000200040A4
:101A200000440140004801400300421C13D00E4A0C
:101A3000904213D007D80D4A904211D00C4A13207F
:101A4000934207D0FEE70B4A90420BD00A4A162079
:101A50009342F7D170470E204042FBE70E20F9E792
:101A60001020F7E71520F5E7002C014000040040A6
:101A7000002000400044014000480140B13002789D
:101A8000084B92009B185B681A008C3388321068F0
:101A90001B68184322231840223843425841C0B2E1
:101AA0007047C0464C010020030010B594331B68FA
:101AB0000438984710BD01008C310A68F8B50368F6
:101AC000222A55D1040060345B6A2488826D234049
:101AD00013700200836D5E32013383651388013B0E
:101AE0009BB2138013889CB2002B3DD1EFF310867C
:101AF000013383F310880568204F2A683A402A6032
:101B000086F31088EFF3108683F310880568AA68BF
:101B10009A43AA6086F3108820220A60026804674C
:101B20005268446712020AD5EFF3108183F31088DC
:101B30000268134C13682340136081F31088C36E4E
:101B4000012B12D10022C266EFF3108483F31088B8
:101B500001680F330A689A430A6084F310880268A8
:101B6000D169194200D01362F8BDFFF79DFFFBE772
:101B7000082299690A439A61F6E7C046DFFEFFFF33
:101B8000FFFFFFFB02008C321168F8B503682229C1
:101B900054D104006034596A2488836D214019802F
:101BA0000100023383655E310B88013B9BB20B80E1
:101BB0000B889CB2002B3DD1EFF31086013383F3E9
:101BC00010880568204F29683940296086F31088FD
:101BD000EFF3108683F310880568A9689943A9601C
:101BE00086F31088202111600268046752684467F8
:101BF00012020AD5EFF3108183F310880268134CA8
:101C000013682340136081F31088C36E012B12D137
:101C10000022C266EFF3108483F3108801680F334B
:101C20000A689A430A6084F310880268D1691942ED
:101C300000D01362F8BDFFF737FFFBE70822996970
:101C40000A439A61F6E7C046DFFEFFFFFFFFFFFB96
:101C5000AA23A8215B00C35A4900405A4033181AEE
:101C60003F2318407047AA235B00C25A043BC35A63
:101C70009A4203D0FC30C26CD05C704701204042D5
:101C8000FBE7A923AB225B005200C35C805AC0B2C1
:101C9000834202D3C01A3F307047C01A0138FBE7B5
:101CA00013B56B460268D9710733546819000122D5
:101CB000A04716BD0300FC33DB6BF7B5040001330E
:101CC0003CD10368DB6898475E23FF33E05C002863
:101CD00034D10122E25423003933FF331B6801332E
:101CE0002CD14634FF342178154B89005B185B6892
:101CF000190084310C78944220D01D0024248835AA
:101D00000A702C60EFF31084019482F310881E682F
:101D1000346827000C24A7433760019C84F31088A3
:101D2000EFF3108482F310881A6804231668334393
:101D3000136084F3108820232B600870F7BDC04621
:101D40004C01002010B50400FFF7B4FFAA23A8221D
:101D50005B005200E15AA35A994208D02100FC319D
:101D6000C96CC85C3F2101330B40A35210BD012058
:101D70004042FBE7F8B505000F0016000024B4420E
:101D800001D12000F8BD2B682800395D1B689847F9
:101D90000028F6D00134F2E770B50400084D2B6836
:101DA000C360236820005B699847002807DAE2686F
:101DB0002B689B1AA2689342F3D30120404270BD66
:101DC0004C010020F8B506000F0015000024AC42BD
:101DD00001D12000F8BD3000FFF7DEFF431CF8D032
:101DE00038550134F3E7F7B50F0016001D001C1E2F
:101DF00001900BD000240198FFF7CEFF431C05D0C3
:101E0000B84203D030550134A542F4D12000FEBDC4
:101E1000C3B210B52E2B1BD8E022184C9B00D20069
:101E2000024018591043431C11D0030600221B0F17
:101E3000042B03D8124A9B00D218526C0F24114B6A
:101E4000204080001B18DB6F002915D0936110BD66
:101E5000C0220240C02AFAD1D22BF8D8813A0240DF
:101E6000074B92009B18E0229B6D044C9B001B5972
:101E7000D20010401843D6E79362E8E7185F0008E5
:101E8000185800089856000810B50400FFF72AFDFE
:101E900036202056002802DB0021FFF7B9FF10BDD5
:101EA00010B53630007840B2002802DB0121FFF780
:101EB000AFFF10BD10B51F240630045700212000CD
:101EC000FFF7A6FF01212000FFF7A2FF10BD034A84
:101ED000116813685B1A8342FBD370474C010020E2
:101EE00070B504000D00002856D003000600002045
:101EF000344A9C331A60B0363056FEF787FC220015
:101F0000B1321278304B92009B185B6822001800A7
:101F1000C23288301188026889B2202A38D1B83498
:101F200022685218002A33D0ADB2002D30D0802460
:101F300099686401A14204D11C69002C01D1D40725
:101F400026D41A651A000024543215805580D463B3
:101F50003C3221220260802280205C6E920540018A
:101F600094421AD1194A814204D11969184A0029A8
:101F700000D0164A9A67EFF31081012282F310888D
:101F80001A68802390681B040343936081F31088D0
:101F900000203056FEF72EFC70BD0E4A814204D15F
:101FA00019690D4A002900D00A4A9A67EFF3108197
:101FB000012282F310881A6880231068034313609B
:101FC000E4E7C046DD1F00084C0100209112000824
:101FD00009130008B7130008E91300080300020002
:101FE00070B5C233C4321988146809193F242140DE
:101FF00019800100BE3109881D880024A94216D02D
:102000001D8840311C880B4B491BA4B2194004D5D4
:10201000402301395B421943013140231B1B994284
:1020200000D9190001241160FFF75AFF6442200013
:1020300070BDC0463F000080F7B50F00402504008A
:10204000403F00680193AF4304239C461A4EC56984
:102050000D40A94201D100201BE03568019BAD1A5B
:10206000AB4226D3634605681D42F0D0002FEDD069
:10207000C36908251E002E402B420BD005622000AC
:10208000FFF7D4F8230090331D600023012084342F
:102090002370FEBD8025C3692D012B42D4D005627B
:1020A0002000FFF7C3F823002022903384341A6005
:1020B00026700320EDE7C0464C01002003000022FB
:1020C000903370B51A602A4B04001E6803681B68C1
:1020D0001B071CD580213200264B8903FFF7ACFF7C
:1020E000002814D0EFF31081012383F3108880209F
:1020F000226813688343136081F310882300202231
:1021000088331A60032000238434237070BD2500B7
:1021100023688C351B685B0721D5802132002000A5
:10212000144BC903FFF788FF002818D0EFF3108085
:10213000012282F3108821680F4E0B6833400B6038
:1021400080F31088EFF3108082F3108821688B6889
:1021500093438B6080F3108820232B60D2E7230009
:102160002022002088331A602A60E0662067CAE7D0
:102170004C010020FFFFFF01DFFEFFFFF0B595B02F
:102180000D931AAB0C9204CB04001B780B910F93A8
:102190001CAB1B780E9210931DAB1B78119300287B
:1021A00002D1002015B0F0BD0300A0331B68AB4D79
:1021B000180029000293FFF752FA2300A4331E6887
:1021C000A74F079039003000FFF749FA2300A833E2
:1021D0001B68A449039018000493FFF740FA2300FA
:1021E000AC331B68A049089018000593FFF737FA35
:1021F000390009900298FFF732FA290007003000F1
:10220000FFF72DFA079B0190002B01D1002FC8D0BA
:10221000731C05D0039B002B02D1019B002BC0D067
:10222000049B013302D0089B002BBAD0059B0133DD
:1022300002D0099B002BB4D003990798FFF71BFA33
:10224000002803D138000199FFF715FA0899FFF724
:1022500012FA0999FFF70FFA051E2060A1D0834BEF
:10226000984200D0B2E08022814BD201196B8148A4
:1022700011431963196B01401963196C11431964F7
:102280001B6C13401293129B002306931B330A937B
:102290002300069AB1331A700A9A013B1A70079B01
:1022A000002B00D1A9E06D490298FFF7C9F9039B03
:1022B000002B03D030006A49FFF7C2F90023002742
:1022C0000293089BBB4205D066490498FFF7B8F912
:1022D0000137FF37099B002B06D0802362499B0002
:1022E00005981F43FFF7ACF9069A634B92009B18C1
:1022F000261D5E600B9B6560A3600C9BE761E3603D
:102300000E9B23610D9B63610C23A3610023236259
:102310000833E362029BE3630F9B002B04D00A2384
:10232000E36280235B026363109B002B06D00123D2
:10233000E26A1343E36280239B022363119B002B19
:1023400006D00423E26A1343E3628023DB02A36323
:102350000023012163620A98FEF768FA2300039ABA
:102360008C33002A5AD1019A002A57D11A68002AC0
:1023700003D1220001998832117024221A602B683F
:10238000233A93432B60E36A002B02D03000FEF720
:10239000E5FE3000FEF722FE012800D101E76B6860
:1023A000364A134022226B60AB689343AB6008232C
:1023B000AA681343AB6001232A68300013432B60E3
:1023C000FFF77CFE43425841C0B2EBE62C4B9842EB
:1023D00000D0E6E68022264B9202D96A29481143B2
:1023E000D962D96A0140D962D96B1143D963DB6BD9
:1023F00013401393139B012347E7002F00D15DE7A0
:1024000017490298FFF71CF9019B002B03D03000FD
:102410001249FFF715F980231B0250E71A68002ABA
:1024200002D1210088310A7024221A602B68233AD5
:1024300093432B60E36A002B02D03000FEF78EFE40
:102440003000FEF7CBFD012800D1AAE66B680B4AED
:1024500013402A226B60AB689343ABE7BC5800087B
:10246000D45F000834590008A05900080038014022
:1024700000100240FFBFFFFF4C010020FFB7FFFF2D
:1024800000440040FFFFFDFF70B504008C3423685A
:10249000202B63D1802382685B019A4204D10369B7
:1024A000002B01D1CB0759D40023C36603685B68B6
:1024B0001B020CD5EFF31085012383F310888023D2
:1024C0000268DB0416683343136085F31088030049
:1024D00001225C3381651A805A8080210023826842
:1024E000436749018A423AD103695A4253411B0268
:1024F000FF330200603213800300002290331A6021
:1025000022232360EFF31081213B83F310880268BC
:1025100094682343936081F3108880248022456E61
:1025200081680369A4055201A5423ED104006834C4
:102530002488012C39D8914232D1002B21D12C4B47
:102540004367EFF31081012383F31088802302682F
:102550005B0590680343936081F3108870BD002A87
:1025600005D10269FF23002AC3D0803BC1E7802147
:1025700049058A42BDD102697F23002AB9D0403B78
:10258000B7E71C4B4367EFF31081012383F31088F7
:102590000268FF3314682343136081F31088D0E787
:1025A000144A4267002BCCD0EDE791421AD1002BA0
:1025B0000AD1114B4367EFF31081012383F3108895
:1025C00002681F3310680AE00C4B4367EFF3108179
:1025D000012383F31088026820331068FF3303431C
:1025E0001360B9E7054A4267002BE4D0EEE7C04626
:1025F0008D2B0008CF290008851B0008B71A00089A
:102600000122036810B5D96904000438114201D0D1
:102610001A620BE00222D9691142F9D10422D96968
:102620001142F5D10822D9691142F1D1FFF726FAFA
:10263000002804D121002000AE31FFF725FF10BD96
:10264000F7B50268C14DD3690400116890682B4248
:1026500010D120252B4200D19BE0802676050D402D
:102660000640354300D194E0636F002B00D18BE02E
:10267000200084E0B64D05400095B64D009E0D400B
:10268000354300D185E0250001269035334205D041
:10269000CF0503D516622F683E432E6002263342D3
:1026A0000CD0C7070AD52700166290373E680197FD
:1026B000B446042667463E43019F3E6004263342EB
:1026C0000CD0C7070AD52700166290373E680197DD
:1026D000B446022667463E43019F3E600826B44644
:1026E000334209D02027009E0F40374304D066466E
:1026F00016622F683E432E6080263601334206D094
:102700004F0104D5166220222E6832432A602A68BF
:10271000002A39D0202213420AD080235B050A40C8
:1027200003401A4304D0636F002B01D02000984768
:1027300022682B684027966828223E4013402000DC
:102740001E4322D0FEF772FD23689B683B4218D0DF
:10275000EFF31081012383F31088250004CD9368E3
:10276000BB43936081F31088E86F002809D07A4B4F
:102770008363FEF785F8002806D0E86F836B9847DF
:1027800002E02000FFF73CFFF7BDFFF739FF2E60A6
:10279000FAE7E56E012D00D0CBE01026334200D1E0
:1027A000C7E0314200D1C4E01662936822005C3277
:1027B000402117881A000A400B4200D187E0201DF3
:1027C000C36F1A6853689BB2002B76D0BB4274D299
:1027D00027005E373B801268202317001F400097B8
:1027E0001A423DD1EFF3108C85F3108827685B4BBC
:1027F0003A681A403A608CF31088EFF3108C85F336
:1028000010882768BA68AA43BA608CF31088EFF37F
:10281000108C85F310882768BA688A43BA608CF3F5
:102820001088220022338C32FF331360009BE36652
:10283000EFF3108185F3108822681368B3431360A7
:1028400081F31088C36F002B0AD0981DC27F591DD9
:102850000191022A09D00422DA630A00009BD3778F
:10286000022323675E3423888EE70E271A683B49CC
:102870001668BE435F6C16603E680E403E60166888
:102880001E31AE4316601A6CFF310A409540344E3B
:102890009A6C77683D437560DD6C55601A6D002A4F
:1028A00006D015682D490D4015605A6D9B6D53601B
:1028B0000123019AC3770023D1E7BB4200D063E72D
:1028C00013689B0600D45FE7022323675CE72100BF
:1028D0005E310B8809889BB2002900D154E7BB42C6
:1028E00000D151E7EFF3108085F3108821681D4F68
:1028F0000B683B400B6080F31088EFF3108085F38A
:1029000010882168184F8B683B408B6080F31088DB
:10291000230020218C331960E2666267EFF3108197
:1029200085F3108822681368B343136081F310881D
:10293000CAE780256D032B4218D0460216D5210028
:1029400020001562AE31FFF79FFD1DE70F08000064
:102950000100001020010004BD290008FFFEFFFF58
:1029600000000240DFFEFFFFFEFFFFEF8022134268
:1029700007D080252D040A402840024301D0A36FD0
:1029800073E64022134200D1FEE6114200D1FBE67D
:10299000EFF31080012383F3108821680B689343C1
:1029A0000B6080F310882300203A88331A600023DC
:1029B000201FA367983423689847E5E6806A0022C1
:1029C000030010B55E331A80FFF71AFE10BDF0B594
:1029D0000600036885B0DD691A688C3603929A6830
:1029E000040001923268222A00D0C0E0030068335C
:1029F0001B88002B00D190E0030060331B880293FA
:102A000020231D4200D188E0236802995B6AA26DF1
:102A10000B4013702200A36D5E320133A36513884F
:102A2000013B9BB2138007232268D5691D422FD03A
:102A3000063B1D4208D00399C90505D52100136244
:102A40009031086803430B6002231D4209D00199AD
:102A5000C90706D52100136290310868DB180343CB
:102A60000B6004231D4209D00199C90706D51362E2
:102A7000220090321168023B0B431360270090370D
:102A80003B68002B04D02000FFF7BAFD00233B6019
:102A900023005E331B8899B2002BB1D1EFF3108570
:102AA000013383F310882068334F02683A40026094
:102AB00085F31088EFF3108583F3108820682F4F7B
:102AC00082683A40826085F3108820223260226852
:102AD00021675268616712020AD5EFF3108183F310
:102AE00010882268264813680340136081F3108819
:102AF000E36E012B37D10022E266EFF3108083F3FF
:102B0000108821680F330A689A430A6080F310889E
:102B10002268D169194200D0136223005E331B88FA
:102B20009AB2002B1DD0230068331B88934218D91A
:102B3000EFF31080012282F310882168114D8B6819
:102B40002B408B6080F310880F4B6367EFF310818D
:102B500082F310882023226810680343136081F3F6
:102B6000108805B0F0BD2000FEF79EFFD5E70822D3
:102B700099690A439A61F4E7FFFEFFFFFEFFFFEF4A
:102B8000FFFFFFFBFFFFFFEFB71A0008F0B50600DD
:102B9000036885B0DD691A688C3603929A68040070
:102BA00001923268222A00D0BEE0030068331B88FD
:102BB000002B00D18EE0030060331B88029320239A
:102BC0001D4200D186E023680298596AA26D014037
:102BD000118021000232A2655E310A88013A92B268
:102BE0000A800722DD6915422FD0063A154208D027
:102BF0000399C90505D521001A629031086802437E
:102C00000A600222154209D00199C90706D52100A0
:102C10001A6290310868921802430A600422154231
:102C200009D00199C90706D51A6222000223903201
:102C300011680B431360270090373B68002B04D0CA
:102C40002000FFF7DDFC00233B6023005E331B8880
:102C500099B2002BB3D1EFF31085013383F31088C1
:102C60002068344F02683A40026085F31088EFF321
:102C7000108583F3108820682F4F82683A40826065
:102C800085F31088202232602268216752686167CC
:102C900012020AD5EFF3108183F3108822682748C7
:102CA00013680340136081F31088E36E012B37D162
:102CB0000022E266EFF3108083F3108821680F335F
:102CC0000A689A430A6080F310882268D169194221
:102CD00000D0136223005E331B889AB2002B1DD0F4
:102CE000230068331B88934218D9EFF31080012228
:102CF00082F310882168124D8B682B408B6080F323
:102D00001088104B6367EFF3108182F31088202343
:102D1000226810680343136081F3108805B0F0BD8A
:102D20002000FEF7C1FED5E7082299690A439A619F
:102D3000F4E7C046FFFEFFFFFEFFFFEFFFFFFFFBD4
:102D4000FFFFFFEF851B000870B5041E1FD0FEF7C4
:102D500095FE00281BD122002100B13212780C4BC5
:102D600092009B18B23158680D78FFF78DFB220056
:102D70003F21C032138801330B402100BC31098848
:102D80008B4204D0B434118820684554138070BD40
:102D90004C010020094A03681068022010B59C68A5
:102DA0000442FCD01973012198680842FCD0197BB9
:102DB0001268802299681142FCD110BD4C0100209C
:102DC000F0B51F00050087B00CAB00241C5F0DABF5
:102DD000A6B27C431B8800680096466D04932800C9
:102DE000BBB292B289B2B047002C14D0049B1F0A28
:102DF0006B461E7C2B0034331B780393002B0CD1C5
:102E00003900686AFFF7C6FF013C3100686AFFF7C6
:102E1000C1FF002CF4D107B0F0BD039B012B21D1E1
:102E20001026049F1F206B1D18563BB20399002BE0
:102E300000DB0021FEF7ECFFEB1DDB7F03995BB2AB
:102E40001800013E05937F00FEF7E2FFB6B20021B5
:102E50000598FEF7DDFFBFB2002EE3D1013C002C48
:102E6000DED1D8E7B742D6D02800013CFFF722F8E0
:102E7000002CF9D1CFE7F0B589B00EAC0025645F26
:102E80000FAD2D880795002B44D0002C42D0002B8D
:102E900005DA9BB2013159185B4209B21BB20C260C
:102EA000855F8D4236DD002C05DAA4B20132A2180E
:102EB000644212B224B20E27C65F0396964229DD01
:102EC000CF18BEB20496013E37B20597360421D41E
:102ED0001619B6B2771EBC463FB2069767463F0446
:102EE00018D4002902DA0021049B1BB2002A01DA5F
:102EF000002234B2059EB54201DC6D1A2BB2039D4F
:102F0000069EB54201DCAC1A24B2079D00940195DF
:102F1000FFF756FF09B0F0BDF0B585B00AAC2488C4
:102F20000394002A25DB0E25445F944221DD002B0B
:102F30001FD005DA9BB2013159185B4209B21BB2AE
:102F40000C25445F8C4214DDCE18B6B2771E3DB21C
:102F5000AC463F040DD4002901DA002133B26445A8
:102F600001DC631A1BB2039C019401240094FFF757
:102F700027FF05B0F0BDF0B585B00AAC24880394F6
:102F8000002925DB0C25445F8C4221DD002B1FD05E
:102F900005DA9BB201329A185B4212B21BB20E25BF
:102FA000445F944214DDD618B6B2771E3DB2AC46EB
:102FB0003F040DD4002A01DA002233B2644501DC5B
:102FC000A31A1BB2039C009301940123FFF7F8FEA0
:102FD00005B0F0BDF0B585B01C000AAB1B8806003B
:102FE0000D00171E039330DB0E22835EBB422CDDE7
:102FF000002C2AD005DAA4B20135651964422DB23D
:1030000024B20C22B35EAB421FDD2A1992B2511ECC
:1030100008B2090419D4002D01DA002514B2834244
:1030200001DC5B1B1CB2336830005B699847039B73
:103030003000019301233A00009329002300FFF799
:10304000BFFE33683000DB6A984705B0F0BDF0B5CD
:1030500085B01C000AAB1B8806000F001500039307
:1030600000292FDB0C22835E8B422BDD002C29D024
:1030700005DAA4B20135651964422DB224B20E22DC
:10308000B35EAB421EDD2A1992B2511E08B209048A
:1030900018D4002D01DA002514B2834201DC5B1B39
:1030A0001CB2336830005B699847039B3000019382
:1030B0002A00012339000094FFF782FE33683000B4
:1030C000DB6A984705B0F0BDF0B589B01E000EABC5
:1030D000150000229B5E070003930FAB1B880C00BA
:1030E0000793002E05DAB6B201343419764224B2C1
:1030F00036B20C23FA5EA24247DD039B002B07DAAF
:103100006B469B8901355D195B421BB22DB203935F
:103110000E217B5EAB4238DDA01981B204910139EA
:1031200008B20590090430D40399691889B2481E81
:10313000844600B206906046000426D4002C02DAD1
:103140000024049806B2002D02DA002509B203918A
:1031500005998A4201DC121B16B2069A934202DCE0
:103160005B1B1BB203933B6838005B699847079B66
:1031700038000193039B2A00009321003300FFF7DE
:103180001FFE3B683800DB6A984709B0F0BD37B5D1
:1031900006AC0025645F07AD2D88002B05D0002C00
:1031A00003D001950094FFF78FFF37BDF0B5050000
:1031B000002605271023C25E87B03C3AD30F9B1828
:1031C0005B109BB204931222835E503BDC0FE41829
:1031D0006410A4B2002223B2039393B2190079437E
:1031E0000593049BA86C5918D310F3189BB2C35CC9
:1031F000072090430341012218001040844609B281
:10320000281D134216D02B004C331B88039A0193C0
:1032100000973B00FFF758FF059A013291B212B2B6
:103220000C29DAD102360534B6B2A4B2202ED1D19F
:1032300007B0F0BD6346E9E70300F7B534331F7804
:1032400005000C00002F03D1406AFFF7A3FDF7BD76
:10325000012F1DD108261F206B1D185663B239009F
:10326000002B00DB0021FEF7D3FDEB1DDB7F3900D7
:103270005BB21800013E01936400FEF7C9FDF6B28F
:1032800000210198FEF7C4FDE4B2002EE3D1DEE791
:10329000FEF710FEDBE770B50600040000200D000D
:1032A000373630560021FEF7B3FD29002000FFF726
:1032B000C3FF002001213056FEF7AAFD70BD70B596
:1032C000040003680D005B6998472300002D09D0B6
:1032D0003C3319782000FFF7DEFF23682000DB6A0B
:1032E000984770BD3D33F4E70300F7B534331E78DB
:1032F00005000C00002E08D1406A090AFFF74AFDBC
:10330000686AE1B2FFF746FDF7BD012E1DD1102717
:103310001F206B1D185623B23100002B00DB00214B
:10332000FEF776FDEB1DDB7F31005BB21800013F3D
:1033300001936400FEF76CFDFFB200210198FEF7D7
:1033400067FDA4B2002FE3D1DEE7FEF7B3FDDBE7B4
:1033500073B504001D00002915DB0C20235E8B4291
:1033600011DD002A0FDB0E20235E93420BDD0123CB
:1033700020680093466D89B2200092B2B0472900C0
:103380002000FFF7B1FF73BDF7B504000D00160074
:103390001F0000291CDB0C22835E8B4218DD002EEF
:1033A00016DB0E22835EB34212DD03685B69984729
:1033B000012320680093A9B2B2B2456D2000A8474E
:1033C00020003900FFF790FF23682000DB6A984750
:1033D000F7BDF7B504002600150000910193FEF734
:1033E00081FA002036363056002802DB0021FEF735
:1033F0000FFD27000020373738560021FEF708FD63
:1034000020000099FFF718FF002001213856FEF731
:10341000FFFC0027019BBB4207DC00203056002840
:1034200002DB0121FEF7F4FCF7BD230034331B78E7
:10343000022B0BD123000833DB7F002B06D0298819
:103440002000FFF751FF02350137E3E76B1C2978B5
:1034500020000093FFF7F0FE009DF5E7002310B574
:1034600020311A00C9B2FFF7B4FF10BD0323F7B52E
:1034700004001940022937D099423AD001293DD0A1
:103480004825F0223E33FF3320002600A176A2819A
:10349000E381FEF727FA002036363056002802DB9B
:1034A0000021FEF7B5FC27000020373700213856F1
:1034B000FEF7AEFC36212000FFF7BEFE0020012102
:1034C0003856FEF7A5FC230034331B78022B17D0A7
:1034D00029002000FFF7B0FE00203056002802DB54
:1034E0000121FEF795FCF7BDA0238825F0225B00A3
:1034F000CAE7E825A022F0235200C5E72825F9E70E
:1035000023000833DB7F002BE2D06B46197A2000C2
:103510000902DD712943FFF7E7FEDDE7F7B5160085
:1035200008AA1288013BCB18013A9BB21B4DB21876
:10353000009393B20193AB8804000F008B4203D138
:10354000EB88009A93420ED02A212000FFF7A3FEB9
:1035500039002000FFF7C8FE20000099FFF7C4FEE5
:10356000009BAF80EB802B89B34203D16B89019A1A
:1035700093420ED02B212000FFF78DFE310020005A
:10358000FFF7B2FE20000199FFF7AEFE019B2E81EE
:103590006B812C212000FFF77EFEF7BD000000208C
:1035A000F8B50700282241373B7804000D0013408E
:1035B000934204D1002903D180239B004364F8BDCA
:1035C000260025494036FDF742FA3378012BF6D024
:1035D000012131703B78292B16D12000FDF737FAF5
:1035E00023681A6852040FD51A681C49A06B0A4058
:1035F0001A60002808D01A4B8363FDF741F90028B0
:1036000002D0A06B836B98472A233B7023002022B3
:1036100042331A7000236364236812495A680A40CF
:1036200001215A606185628D656222858022520483
:10363000E2620D4A986962639A69120C0A4203D1E8
:103640000822104200D0DA610023200002493370C2
:10365000FDF778F9B3E7C04602800000FFBFFFFF27
:10366000310A0008FF7FFFFF773A0008426E031F10
:1036700010B51F2A02DC9A6E01329A66020091325E
:103680001278012A04D1996E70314118FFF788FF32
:1036900010BD0100036810B5040000201A68423113
:1036A0000870510417D51A6817490A401A60230098
:1036B00041331A78292A13D1013A1A7021232000A4
:1036C00023630121FDF7C3F9220000234032903427
:1036D0001370237010BD1204E9D51A680B49E4E792
:1036E0001A782A2AF6D1023A1A702223200023637C
:1036F0000221FDF7ACF923000022403320001A70AC
:10370000FFF7B4FFE6E7C046FFBFFFFFFF7FFFFF05
:10371000F7B5056806002B6841360093C36A0400BC
:103720000193202330780F002138EB6109280CD851
:1037300001F01EF905680B0B0B0B0B6E05682000E2
:103740005D49FDF784F92123236380226B6812020F
:1037500013436B606B68594A200013406B60FDF7A0
:10376000CDF8009B5B0459D52B68554A13402B605C
:10377000A36B002B03D01B685B689BB2638504239B
:103780001F420FD06A6A9F43636A1A70636A0133EB
:103790006362238D002B05D0013B2385638D013BA4
:1037A0009BB26385638D002B03D00423626C1343AB
:1037B000636410231F4211D0009A1A420ED0628D0A
:1037C000002A49D13378282B33D18023019A9B04D6
:1037D0009A422ED139002000FDF779F9230000220A
:1037E00042331A70656C6263954244D02000616C6C
:1037F000FDF7A2F93378282B03D139002000FDF71B
:1038000066F9F7BD20002F49FDF721F922239BE738
:1038100020002D49FDF71BF9002395E78022009B2E
:1038200012021342ABD02B68284A13402B60E36B83
:103830009FE731781022236829290BD12449019868
:10384000884207D02000DA61FDF758F82000FFF722
:1038500020FFC3E7DA61C1E72268D3610423626C09
:1038600013436364019A1B4B1A42B7D12000616C69
:10387000FDF762F9B2E72700E36A154A4037934241
:103880000CD02000FFF705FF2023114A2000E26240
:10389000337025633D70FDF783F8B2E7202332785B
:1038A000337025633D70222A03D12000FFF7DEFE2E
:1038B000A7E790342570A4E70180000000E800FE2F
:1038C000FFBFFFFF0280000003800000FF7FFFFFBB
:1038D0000000FFFFFFFFFFFEF7B5060091363378CB
:1038E00004000F00051F012B09D1AB6E002B06D081
:1038F000EB6E28009847022333700023AB66002349
:10390000012F66D1337026002A6F90369A4202D07A
:10391000280033709047337826002822DBB20193C9
:10392000413633781340934205D1019B002B03D1DC
:1039300080239B006364F7BD250020002A494035A1
:10394000FDF785F82B78012BF5D001232B70337808
:10395000264F2A2B16D102212000FDF778F8236884
:103960001A6812040ED51A68E06B3A401A600028F3
:1039700008D01F4B8363FCF783FF002802D0E06B65
:10398000836B9847292333702300202242331A7017
:103990000023636423685A683A405A6022007032F8
:1039A0006262019A6285628D228580229204E262BF
:1039B000104A996962639A69D20303D508221142B9
:1039C00000D0DA610023200007492B70FCF7BAFF12
:1039D000B1E7AB6601233370AB6E20007433E91896
:1039E000FFF7DEFDA7E7C04601800000FF7FFFFF75
:1039F000310A0008773A00080300282170B54133E6
:103A00001B78040002680B408B422ED195699369A4
:103A10009168D068E068ED03ED0F02281BD1FC30FF
:103A20001B0C89050340490F4B401900F838014031
:103A3000034210D1A36C0133A364A36C022B09D100
:103A40000633A164D361230040331970290020009C
:103A5000FFF742FF70BD802120000902FCF7F7FF4D
:103A60002300002240331A70F0E70823D3610023BB
:103A700040342370EEE770B5050040352E78040021
:103A8000C36A0220012E0BD0013828701F3001427A
:103A900007D0024205D02000FFF73AFE0020287030
:103AA00070BD102001422FD002422DD0628D002A1D
:103AB0001CD1220041321078282807D180208004B0
:103AC000834203D12000FDF702F8E7E710211078C8
:103AD0002268D1612928E1D12C488342DED0200020
:103AE000FCF70CFF2000FFF7D4FDD7E72268D06178
:103AF0000422616C0A436264254A1342CED120003D
:103B0000616CFDF719F8C9E70420014219D002429F
:103B100017D0628D002A0DD02268516A626A117036
:103B2000626A01326262228D013A2285628D013A17
:103B300092B26285628D002AB0D1144A9342ADD010
:103B4000D0E70820014205D0024203D02000FFF751
:103B500053FFA3E702200142A0D002429ED0628D13
:103B6000002A0DD0636A226819780133916263627A
:103B7000638D013B9BB26385238D013B23858DE7DC
:103B8000034A134200D089E7ACE7C0460000FFFFBC
:103B9000FFFFFFFEF8B5050040352E780400C36A2C
:103BA0000220012E0BD0013828701F30014207D0AF
:103BB000024205D02000FFF7ABFD00202870F8BDC1
:103BC000102631425ED032425CD080273F02500442
:103BD0003A401700C00F074351D0E66B002E1DD0AE
:103BE000002A03D032685268564272412600A76B01
:103BF0004136002F05D0002803D0386840680028DF
:103C000001D0012A1CD13278282A09D180229204BD
:103C1000934205D12000FCF75AFFCEE73200E5E7DA
:103C2000102130782268D1612928C6D11A488342F0
:103C3000C3D02000FCF762FE2000FFF72AFDBCE79E
:103C400010212268D1610422616C0A4362643078D9
:103C5000124AC0B21342B0D12138092808D800F066
:103C600087FE050C070707070707050C21232363B9
:103C70002000616CFCF760FF9FE72223F7E72368D1
:103C8000DE619AE70823194297D01A4200D194E7DF
:103C90002000FFF7B1FE90E70000FFFFFFFFFFFEEF
:103CA000836810B5002B02D003220100984710BD95
:103CB00070B5431DDB7F04000E00002B0BD102000A
:103CC000BC321378C3189C33197013780133DBB2FC
:103CD0001370012070BD8023458CDB0001359D42AF
:103CE00015DC038C9D420AD9202D00D22025290005
:103CF000E06901F0B7FC002808D0E0612584638CFE
:103D0000E269D654638C01336384E2E7FEE7002066
:103D1000E0E7F8B5431DDB7F04000E001500002B23
:103D200024D08023408CDB008018984235D8238C27
:103D3000984218D90700202800D220273900E069CE
:103D400001F090FC00280DD0E0612784638CE069CD
:103D50002A00C018310001F0D1FA638C5B1963842A
:103D6000280002E0FEE70028F0D1F8BD97B2180065
:103D7000202FFAD821002834BC319AB2974204D8B7
:103D80000B785B19DBB20B70EAE70A78F05CD218AB
:103D9000A218743210700133EFE70020E5E7F0B5A8
:103DA000036885B09B680292009104009847A9239C
:103DB0005B00E65A23004022FC33DB6B961B3F3A44
:103DC00007002274013335D15E23FF33E15C002903
:103DD00030D0200000214630E154FF300178474BBD
:103DE00089005B185B68180084300190017891426B
:103DF00020D024210270043003900160EFF3108C76
:103E000082F310880C201D682968814329608CF397
:103E10001088EFF3108182F310881A680823156860
:103E20002B43136081F3108820230021039A136031
:103E3000019B1970236820009B6898470028F9D0DF
:103E4000029DB54233D8BD4231D8A92327005B007B
:103E5000E35AFC37386D5A19C018402A40D82A0056
:103E6000009901F04BFA2E00A9223F215200A35ADB
:103E700020005B190B40A35222004632FF32127819
:103E80001E4B92009B185A68943013008C32883372
:103E90001B681268134321221340934204D0FC3460
:103EA0003100E665FEF71CF8029805B0F0BDBE4291
:103EB00000D93E00236832005B68009920009847D3
:103EC000009B20009B1900932368AD1B9B689847BB
:103ED000A9235B00E65A133BFF3B07009E1BB0E79C
:103EE0004026F61A3200009901F008FA009B386D5E
:103EF000AA1B991901F002FAB6E7C0464C0100204E
:103F0000002110B50400C18201830069884202D0FB
:103F1000A28A01F0C4F90021E0696184884202D0DC
:103F2000228C01F0BCF910BD836810B5002B01D1C3
:103F300001F0A2FBC368984710BD10B50200007FD6
:103F40000138072810D800F013FD04140F100F0FCC
:103F50000F120123043A10681B016433C0188368F0
:103F6000002B01D0FFF7E0FF10BD0323F2E704238D
:103F7000F0E70223EEE70222036870B5DD681E69F0
:103F8000040016420AD0154208D0053A1A610432DC
:103F900002779B69FFF7D1FF0023237704231E429A
:103FA0000DD01D420BD00522236852421A61073200
:103FB000227720009B69FFF7C0FF002323770823A7
:103FC0001E420DD01D420BD00922236852421A61B5
:103FD0000D3222772000DB69FFF7AFFF0023237744
:103FE00010231E420DD01D420BD0112223685242D5
:103FF0001A61193222772000DB69FFF79EFF002348
:10400000237701231E420DD01D420BD002222368CC
:1040100052421A61231F1868C36E002B02D064300D
:10402000FFF782FF82239B011E4204D02B0602D59C
:1040300023680E4A1A61F30504D52B0602D52368BE
:104040000B4A1A6140231E4205D01D4203D0412273
:10405000236852421A6120231E4205D01D4203D01C
:104060002122236852421A6170BDC0467FDFFFFFE4
:10407000FFFEFFFF002310B5012809D1133058437C
:10408000054BC0188368002B01D0FFF74DFF10BD12
:1040900001334008DBB2EFE75804002070B5084D4B
:1040A0000400EB68184202D0E860FFF7E3FF2B69D9
:1040B000234203D020002C61FFF7DCFF70BDC04617
:1040C00000180240037C002B09D0054BAB211B6874
:1040D000A9235B00C25A4900435A9A42FCD1704757
:1040E0004C010020F0B5C3B289B006912E2B19D82F
:1040F000E022B3499B005F58D200024017437B1C6B
:104100003DD00F233A091A40AE4C3B400393930035
:10411000E318DB680292039AD340DB0727D5AA4B4A
:104120001E0017E0C0220240C02A28D1D22B26D878
:10413000813A0240A54B92009B18E0229B6DA0495A
:104140009B005F58D20010400743D8E7974200D148
:1041500095E00C331A68511CF8D10121029A994B51
:1041600092009B18039A9140DA688A43DA60069BB2
:104170000021012B00D106993800FDF791F909B013
:10418000F0BD70218A43A1690A4314E190498B4232
:1041900000D110E18F498B4200D10CE180218A438C
:1041A000A16A1143E269DA6262699A62834205D0C8
:1041B000874A934202D0874A934201D1626A1A63C6
:1041C0000422186802431A6001225A611960230010
:1041D00058331A700A3B1A705A709A70DA701A7152
:1041E0005A719A71DA711A725A72013B1A70079AEF
:1041F000744B92009B181D6A2C602C68002CACD06C
:1042000025692800FDF70BF9734B9D4205D1734AD0
:104210007349136C0B40136407E0724B9D4215D138
:1042200002216E4AD36B8B43D36300222500260004
:10423000644B80001B181A62E260B4356436AE42EB
:1042400019D0103D2800FFF72BFDF8E7664B9D4283
:1042500003D1624A6549136CDCE75D4B9D4203D193
:104260005E4A6349136CD5E75A4B9D42DDD15B4AE8
:104270006049136CCEE7200001F062F96DE7310070
:104280003800FDF7ECF9FDF7CAF88300E418256A59
:104290000790002DB1D1B42001F048F9040031009D
:1042A0003800FDF7DCF9260023006436B4330590AE
:1042B000049301960C220021019800F0F0FF019B6D
:1042C000DD6010330193019A049B9342F2D105986B
:1042D000FDF7A5F822003B4B80001B180C321A6238
:1042E000059B236123002C331D70203325636563F8
:1042F000A563E56325646564A5641D705D7025662E
:104300002500032310352800E460E365FDF70DFB6D
:10431000B368002B06D003223100300098470023F9
:10432000B360F360049B1036B342F1D100232360E5
:104330006360A3606361A361236263628033A362ED
:1043400023002D4A4D33E2611B78DAB2002B20D1D5
:1043500023004C331A702800FDF7E7FA2069FDF7B7
:1043600039FB0500E16DFCF761FA2800FCF742FA21
:1043700026693000FDF758FB05003000FDF72AFBE9
:10438000854206D02800E16DFCF750FA2800FCF7C2
:1043900031FA230002224D331A7023690E481A683D
:1043A000834200D1EDE60F498B4200D1E9E60E4988
:1043B0008B4200D0EAE611491140226A0A43EDE639
:1043C000185F00084C010020AC5B0008185800087A
:1043D0000044014000480140002C01400010024010
:1043E000FFF7FFFF0004004000200040FF7FFFFFB9
:1043F000FFFFFDFFFFFFFBFFFFFF0000FFFCFFFFD4
:1044000010B5040001210068FFF76CFE03CCFDF736
:10441000FFFC10BDF8B504000E1E00D15E4E250055
:10442000002036352856002807DB0121FFF75AFE09
:10443000002001212856FDF7EBFC25000020373530
:1044400028560121FFF74EFE002001212856FDF7D6
:10445000DFFC230034331D78002D34D10C3B320AAD
:104460005A70320C1E709A70360E2200DE700123D4
:104470002C3213705570606A092102005D32256389
:10448000117734315177D5769577D37715701B3204
:10449000557142492A00FDF7F9F82500002035350D
:1044A0002856002848DA002320001A000121FEF7D0
:1044B00090FF9620FDF70BFD394D2978002958D142
:1044C000384BE360F8BDE61DA71D012D1DD11F204F
:1044D000631D18562900FFF705FE1F20631D18569F
:1044E0000021FDF795FC1F2029003056FFF7FAFD4B
:1044F0001F2000213056FDF78BFC1F203856002866
:10450000CBDB0021FFF7EEFDC7E71F200121385666
:10451000FFF7E8FD1F2001213856FDF779FC1F2029
:1045200030560028B9DB0121FFF7DCFD1F200121F7
:104530003056FDF76DFCB0E70121FFF7D3FD2D7874
:1045400001216DB22800FDF763FC6420FDF7BFFC7C
:1045500000212800FDF75CFC6420FDF7B8FC280072
:104560000121FDF755FCC820FDF7B1FC002DA3DAB1
:1045700099E76E78AF1C7F2535402B003A0020006C
:1045800076B2FEF726FF7D19002E00DB95E7962018
:10459000FDF79DFC91E7C04600366E0100093D0025
:1045A000005A0008F000400110B5040000F0D8F9EE
:1045B000034B020021001800FFF7F1FB10BDC046BD
:1045C000F002002070B58AB00C006A462421002356
:1045D00052181370012C00D80A2409AD21000600DE
:1045E00000F0D0F903006343F31ADBB21A0037324C
:1045F000D2B2092B01D83033DAB2013D2A70B4426D
:10460000ECD92800FFF7D0FF0AB070BD00231B686B
:10461000FFDE044B10B5186A002802D00430FFF703
:10462000AAFC10BD4C01002010B5FFF7F2FF10BD31
:10463000044B10B5586A002802D00430FFF79BFCE9
:1046400010BDC0464C010020044B10B5986A0028EC
:1046500002D00430FFF78FFC10BDC0464C01002093
:10466000044B10B5D86A002802D00430FFF783FC51
:1046700010BDC0464C010020044B10B5186B00283B
:1046800002D00430FFF777FC10BDC0464C0100207B
:1046900010B500F055FF10BD10B500F051FF10BD72
:1046A000024A1368013313607047C0464C01002072
:1046B00010B50120FFF7F2FC0220FFF7EFFC10BD60
:1046C00010B50420FFF7EAFC0820FFF7E7FC10BD57
:1046D00070B50C241025A8B2013CFFF7DFFC6D007B
:1046E000002CF8D170BD8022014B12059A607047F2
:1046F00000ED00E0C023802110B5044A5B000905ED
:10470000D150034B5868FDF79BFF10BD00E100E05E
:104710004C010020C0238021054A5B00490510B5EB
:10472000D150044B9868002801D0FDF789FF10BDD7
:1047300000E100E04C01002003000A4910B5C86800
:10474000C318EFF30882934205D90C220120064BCF
:1047500040421A6010BD054A054C121B9342F4D228
:10476000CB60F7E700000020E806002000300020C2
:104770000004000001204042704780239B0100207C
:104780004B60704701207047002070470020704741
:10479000FEE716220120024B40421A607047C046D5
:1047A000E806002001207047F0B589B00F000492A0
:1047B000002800D19CE0431E012B00D9C0E0634ECD
:1047C000634D3368634C06932B78012B50D8B1347A
:1047D0002378FA259B00F3185C68AD002300AD3305
:1047E0001B789B00F3185A68212310009C468830E0
:1047F0008C32036811680B4361460B40212B00D1BA
:1048000079E0200088300368202B71D1002F6FD011
:104810006B461B8A002B6BD08022A168520191420B
:1048200004D12269002A01D1FA0761D422000025AF
:104830009032156021220260326826000592220023
:10484000563654321380338080235B01994204D161
:104850002369AB4201D13D001F003388002B51D1A9
:10486000FA2340212000059A9B00FDF7E5FB52E06A
:10487000394B02200793394B19000593FCF7EFFEE3
:10488000002835D000232B7075689D4206D0022089
:104890000599FCF7E4FE2B68834298D0230001229F
:1048A000B568B1331A70002D07D007990220243162
:1048B000FCF7D5FE2B68834289D00225230028000F
:1048C000B13326491D70FCF7CAFE002810D0230022
:1048D00000229621A0331D60200013000392029253
:1048E000019200928901FDF749FC002800D06EE793
:1048F000049809B0F0BD336806995B1AAB4200D248
:1049000077E7F5E7FA2380212000059A9B00FDF761
:1049100093FB002803D0202388342360E8E7226833
:10492000002F09D12B880235DB05DB0D936233881C
:10493000013B9BB2338090E73B7801379362F6E707
:104940000368049A5B689847D2E7C0464C01002090
:10495000E50000203400002098580008BC580008EA
:104960000023C25C0133002AFBD1581E70470000AF
:1049700002B4714649084900095C49008E4402BCF2
:104980007047C046002243088B4274D303098B4210
:104990005FD3030A8B4244D3030B8B4228D3030C0F
:1049A0008B420DD3FF22090212BA030C8B4202D3B1
:1049B0001212090265D0030B8B4219D300E0090AD9
:1049C000C30B8B4201D3CB03C01A5241830B8B42E2
:1049D00001D38B03C01A5241430B8B4201D34B03CB
:1049E000C01A5241030B8B4201D30B03C01A524130
:1049F000C30A8B4201D3CB02C01A5241830A8B42B5
:104A000001D38B02C01A5241430A8B4201D34B029D
:104A1000C01A5241030A8B4201D30B02C01A524101
:104A2000CDD2C3098B4201D3CB01C01A52418309B5
:104A30008B4201D38B01C01A524143098B4201D3EF
:104A40004B01C01A524103098B4201D30B01C01A1A
:104A50005241C3088B4201D3CB00C01A5241830894
:104A60008B4201D38B00C01A524143088B4201D3C1
:104A70004B00C01A5241411A00D201465241104621
:104A80007047FFE701B5002000F006F802BDC04600
:104A90000029F7D076E770477047C04610B5064C3E
:104AA0002378002B07D1054B002B02D0044800E0EF
:104AB00000BF0123237010BD9405002000000000FA
:104AC00080560008044B10B5002B03D0034904485E
:104AD00000E000BF10BDC0460000000098050020A7
:104AE00080560008FA21104B10B518688900FFF7AE
:104AF00049FF8022431E52040120934212D2C0215A
:104B00000A4C0B4A6360136A09061B021B0A0B431B
:104B1000136200200723A0602360136A1B021B0A94
:104B20001943116210BDC0460000002010E000E0F3
:104B300000ED00E010B50C220021040000F0AFFBF6
:104B40000023E36010BD7FB580224F4C0125E36B4D
:104B500052051343E363E36B4C4E134080220393EF
:104B6000039B236C52012B432364236C2B40029341
:104B7000029BA36B1343A363A36B13400193019B9D
:104B8000802332685B0013433360FFF7ABFF0722DB
:104B9000336893431D438023356022685B021343CF
:104BA000236080239B0222681A42FCD0A368384A03
:104BB0001340A3600723A2689A43063B134338229D
:104BC000A360A3681340082BFBD1A368314A1340AC
:104BD000A360314C314B2360FFF784FF002800D0E5
:104BE000FEE723002D331B78DAB2002B02D123001D
:104BF0002C331A70230002222D331A70237D002BD0
:104C00001BD118212369264A5A619A688A439A60FF
:104C1000627D002A36D1013A60211A619A688A437E
:104C2000616A0A4380219A609A688A43A16A2D3496
:104C30000A439A600123237004E00122A1691E2324
:104C4000114202D17FBD013B03D30800D84010427E
:104C5000F9D0E269102A12D006D8002A08D0082A12
:104C6000F0D10F2BEED803E0182AEBD1062BE9D8B0
:104C7000182023695961996881430A43C7E7072BC4
:104C8000E0D8F5E7226AC7E70010024000200240A2
:104C9000FFF0FFFFFF8FFFFF00000020006CDC0231
:104CA000B71DC104F0B5A5B000E000BFAF230622D8
:104CB000E121A14C5B00E2540022A04D490269664B
:104CC000E37C9F4E0393A37C30000293637C0092AD
:104CD00001931300FDF752FAAE235B00E054002865
:104CE0001BD02000FCF7E6FF3000FCF7C7FE0028D1
:104CF00013D1944B2B63A2256D006057FBF786FD03
:104D00004622FF32A25C904B92009B1858688F4954
:104D1000FDF7BAFB6057FBF76DFD07230A93033BD2
:104D20000C93023B0E938A4B00241393149301239C
:104D30005B421693874B21001793874B874D1E9339
:104D4000874B11A81A93874B0B9411930D940F94D2
:104D5000099412941594189419941F9420942194F2
:104D60001094FFF757FB302000F0E0FB2A00783268
:104D7000079513000500059007CB07C57A4A7B4BC2
:104D800006922A0023CB23C2079D059A78352B0073
:104D9000183223CB23C2059A09AE24321300069A97
:104DA00010AF103223CA23C31C2000F0BFFB042322
:104DB0008361F133FF334360634B059A5863059376
:104DC0000123C2607C22050009930D93069B0661B6
:104DD0001C33229304AB9B18654A476104608460CE
:104DE0000AA81A800B940F941094FFF709FB0CA8E3
:104DF000FFF706FB0EA8FFF703FB6869FEF7D6F97D
:104E00000C27FCF72FFB059B5C6B98635948FFF759
:104E1000CBFB0A21A068FFF7D5FB5748FFF7C4FB7F
:104E20000A212068FFF7CEFB5448FFF7BDFB23683B
:104E300060680A215843FFF7C5FB22686368A168D0
:104E400053433A004A43E668B2189268934206D345
:104E5000481CA169FFF71CFE0023A1602360794371
:104E6000711825694B682B60002B06D10122AA60BE
:104E7000023B5A425A41002004E000221800AA6076
:104E8000012BF5D1AA610A6863692861002A44D11F
:104E9000069937481C31996419004C3108801A6012
:104EA000281DFFF7ADFA28000C30FFF7A9FA2800FB
:104EB0001430FFF7A5FA6069FEF778F9236801332B
:104EC0002360059B9C6BFCF7CDFAFA212C4B8900E3
:104ED000E418241A2000FFF755FD059BD863FA2338
:104EE0009B009C4201D3FCF7F2FF2648FFF75CFBD6
:104EF000059B0A21D86BFFF765FB2348FFF754FB9E
:104F0000224B002B00D17CE70B48FCF7A1FE0028C8
:104F100000D175E700E000BF72E7012ABFD19E6CA7
:104F20001B491C488E4201D101005731FC20996475
:104F30001900C0004C31B1E7F0020020EC03002062
:104F400084030020492D00084C0100203604002075
:104F5000F00040010101000100FF0100985A000823
:104F600070020020B85A0008185B00081C5B00089B
:104F700000F8FFFF646500087B6500088B6500088A
:104F800020A1070097650008A9650008000000003F
:104F90008F5A0008185A0008F7B5FA225C4B9200A5
:104FA0009A605C4A03211A601A00FC32D16301390D
:104FB000916303391164516457490024D164AA21D3
:104FC00049005C52554954651165AB220526544F82
:104FD000544D520038009C525C602E70FFF7AAFDC1
:104FE00051482E750190FFF7A5FD2B0006222833AE
:104FF0004E4816001A70FFF79DFD2B004C483C33BD
:105000001E70FFF797FD2B000136503349481E7084
:105010006037FFF78FFD48483E70FFF78BFD019B1F
:10502000464860331E70FFF785FD2B0044488C33E3
:105030001E70FFF77FFD2B004248A0331E70FFF764
:1050400079FD2B004048B4331E70FFF773FD2B0031
:105050003E48C8331E70FFF76DFD2B003C48DC3323
:105060001E70FFF767FD2B002F00F03339481E70CC
:10507000FF37FFF75FFD38487E71FFF75BFD37486C
:105080007E76FFF757FD962335485B00EE54FFF719
:1050900051FDFA23334D9B002800AB60324B2100B9
:1050A00070330C22C4306C602B6000F0F8F82B00D9
:1050B00028002100D0330C22D4301C6000F0EFF81F
:1050C0002B002100E0339C2228481C6000F0E7F808
:1050D0002B0019220833DA672B00013A88331A6053
:1050E000EC612C842C61AC82214B224D2100AB67FA
:1050F000012328005032EB6700F0D1F8012106228D
:10510000EE664942023E2E67AA666967F7BDC04651
:10511000F00200205C5B0008040300204403002030
:1051200058040020540400206C0400208004002057
:1051300094040020A8040020BC040020D004002017
:10514000E4040020F80400200C05002020050020C5
:1051500034050020480500205C0500207005002073
:10516000840500208C010020185B0008B401002099
:1051700000093D00700200208C2070B52A4B2B4C9A
:1051800023602056FBF742FB220024230120E16A22
:105190006D3213700B68250083430B600023236777
:1051A000137022006E32E365137022006C321370AC
:1051B00023008833186803210835FCF771F90321AF
:1051C000E86FFCF76DF91A4BA26A9A420CD1802263
:1051D000184B9203D96A0A43DA62DA6A16490A401E
:1051E000DA62DA6B0A40DA63E069002803D000F083
:1051F000A7F90023E361002520692584A84202D095
:1052000000F09EF9256100230C48A382FEF748FDBB
:105210000B48FEF745FD0B4C143C201DFEF740FDEE
:10522000094B9C42F8D170BD885B00088C010020BE
:105230000054004000100240FFFFDFFF600200202A
:105240005002002094050020540400200D4885469B
:10525000FFF749FA002103E00B4B5B584350043140
:105260000A480B4B42189A42F6D30A4A02E000233E
:1052700013600432084B9A42F9D300F019F8FFF793
:1052800011FDFEE700300020C0650008000000208E
:105290004C0100204C010020F8060020FEE703002E
:1052A0008218934200D1704719700133F9E700006A
:1052B00070B500260C4C0D4D641BA410A64209D1FC
:1052C000002600F0DDF90A4C0A4D641BA410A6422A
:1052D00005D170BDB300EB5898470136EEE7B30037
:1052E000EB5898470136F2E7AC650008AC6500085A
:1052F000B8650008AC65000870477047002310B51A
:105300009A4200D110BDCC5CC4540133F8E70000D0
:1053100070B505000C1E10D0043C2368002B00DA89
:10532000E418280000F0E0F81D4A1368002B05D1AE
:1053300063601460280000F0DFF870BDA34208D954
:10534000206821188B42F3D119685B680918216025
:10535000EEE71A005B68002B01D0A342F9D911686F
:105360005018A0420BD120680918501811608342D0
:10537000E0D118685B68411811605360DAE7A04219
:1053800002D90C232B60D5E7206821188B4203D16A
:1053900019685B680918216063605460CAE7C046F9
:1053A000F406002070B50F4E0D003168040000298E
:1053B00002D100F0A9F830602900200000F0A4F824
:1053C000431C03D101256D42280070BD0323C51C79
:1053D0009D43A842F8D0291A200000F095F801302A
:1053E000F2D1EFE7F0060020F7B50322CB1C934380
:1053F000083305001F000C2B34D20C27B94233D8D8
:10540000280000F071F8374E33681C00002C2FD1B3
:1054100039002800FFF7C6FF0400431C5FD1346841
:105420000094009B002B4AD1002C52D02368280006
:10543000E3180099019300F067F8019B834248D17B
:1054400023682800FF1A3900FFF7ACFF013040D075
:105450002368DB19236033685A68002A33D1009B24
:10546000336019E0002BC9DA0C232B600020FEBD4D
:105470002168C91B20D40B290AD9E2192760A3424D
:1054800004D1326063681160536005E05A60F9E747
:105490006268A3420ED13260280000F02DF820008F
:1054A00007220B30231D9043C21A9842DFD01B1AEB
:1054B000A350DCE75A60EFE723006468A6E7009C8E
:1054C00063680093ADE71A005B68A342FBD1002339
:1054D000DAE70C2328002B6000F00EF8C6E707601F
:1054E000DAE7C046F406002010B50248FFF704FFD3
:1054F00010BDC046EC06002010B50248FFF7FDFEC7
:1055000010BDC046EC060020002370B5064D040017
:1055100008002B60FFF710F9431C03D12B68002B08
:1055200000D0236070BDC046E806002010B5034BD4
:1055300001001868FFF758FF10BDC046FC000020AE
:1055400010B5034B01001868FFF7E2FE10BDC0461E
:10555000FC000020F7B506000C001500002905D15D
:105560001100FFF741FF04002000FEBD002A03D117
:10557000FFF7CEFE2C00F7E700F023F80700854286
:1055800002D84308AB42EFD329003000FFF72CFFCD
:105590000190002801D1019CE6E72A00BD4200D914
:1055A0003A0021000198FFF7A9FE21003000FFF723
:1055B000AFFEF0E7062010B500F034F80120FFF749
:1055C000E7F80B1F1B68181F002B01DA0B58C018D7
:1055D000704770B504000D001F2904D9162303601D
:1055E0000120404270BDC36B002B04D08A009B1881
:1055F0001A68002A08D1200000F030F82A000100C3
:10560000200000F019F8EDE7012A09D0511C03D160
:10561000162303600120E5E7002128001960904768
:105620000020DFE710B5034B01001868FFF7D1FF3A
:1056300010BDC046FC000020002370B5064D0400DC
:10564000080011002B60FFF7A4F8431C03D12B685E
:10565000002B00D0236070BDE806002010B5FFF7D6
:10566000A1F810BD10B5034B0A0001001868FFF740
:1056700071FF10BDFC00002010B5FFF79BFF00007C
:10568000F8B5C046F8BC08BC9E467047F8B5C046A1
:08569000F8BC08BC9E467047FF
:105698000000000000000000000000000000000002
:1056A80000000000000000000000000000000000F2
:1056B80001000000020000000300000004000000D8
:1056C80006000000070000000800000009000000B4
:1056D80000000000000000000000000000000000C2
:1056E80001000000020000000300000004000000A8
:1056F80004020800010002000400060008000A0075
:105708000C00100020004000800000010100000093
:105718000200000004000000080000001000000063
:105728002000000040000000800000000001000090
:105738000002000000040000000800000010000043
:10574800002000000040000000800000020000006F
:105758000030014012000000070000000030014046
:10576800120000000C000000003001401200000090
:105778001500000000300140120000001600000073
:105788000030014012080000FFFFFFFF000000008A
:105798000000000006000000003001401200000078
:1057A8000B0000000030014012000000140000004F
:1057B80000300140120000001600000000300140D7
:1057C80012090000FFFFFFFF0000000000000000BA
:1057D8000100000000300140120000000500000038
:1057E80000300140120000001300000000300140AA
:1057F800120000001600000000300140120A0000EC
:10580800FFFFFFFF00000000000000000400000090
:105818000030014012000000080000000030014084
:10582800120800000E0000000030014012080000BD
:105838000F000000003001401200000010000000BE
:105848000030014012000000FFFFFFFF00000000D1
:105858000000000000000050000400500008005044
:10586800000C0050001400501D0000001E00000035
:105878001F0000002000000021000000220000009E
:105888001A000000230000000D0000000C000000BA
:105898000B000000280000001300000012000000A8
:1058A8000A000000260000000400000019000000A3
:1058B800250000000000000000380140120400002C
:1058C8000200000000440040120100000400000033
:1058D800004400401201000008000000004400409D
:1058E8001201000009000000003801401201000008
:1058F8000930000000380140120100000E000000CD
:105908000044004012010000160000000038014069
:10591800120000002E0000000038014012000000B4
:10592800FFFFFFFF00000000000000000100000072
:1059380000440040120100000C0000000038014043
:10594800120100000E00000000380140120C000097
:105958000F0000000038014012040000130000008E
:105968000038014012040000160000000038014011
:105978001204000019000000004400401201000059
:105988002E0000000044004012090000FFFFFFFF46
:10599800000000000000000000000000004400407B
:1059A800120100000B000000003801401201000045
:1059B8001400000000380140120400001600000026
:1059C80000380140120500001700000000440040A4
:1059D80012090000180000000044004012010000F5
:1059E800330000000044004012000000FFFFFFFFEA
:1059F8000000000000000000EF03038002CF030056
:105A0800C130ED0464031281E803850078CB0539C1
:105A18002C003402F70120EA020000C00123C10172
:105A280010C5023E28C701863601483701003A01F1
:105A380055B1020018B603088227F20100260101B9
:105A4800E00F0F312B0C0E084EF1370710030E092B
:105A580000E10F000E1403110731C148080F0C3183
:105A6800360F118029800006000F000F000F000379
:105A7800000300078007800F801BC0136007000524
:105A880080048004800D8006000F000F000F0003C3
:105A980000038007C01F60332063200FA01D8018FB
:105AA800C030C030E060600000000000000000006E
:105AB8009D060008751D0008EB000008EF000008AF
:105AC80089330008891E000851330008772E000822
